:020000040000FA
:0400000007EF00F016
:0A0008007C8255ED09F058EF0AF074
:1006000000434F4E544147454D3A20303030004969
:100610004E542E2045585445524E410025303364E7
:10062000000044C0D9FF45C0DAFFDECFF6FFDDCFC2
:10063000F7FF0800F550250AD8A443D144C0D9FFDC
:1006400045C0DAFFDE2A000EDD22000E736E000EBA
:10065000726E72C076F073C077F074687568000EC1
:10066000556E000E14D0768044C0D9FF45C0DAFF25
:10067000DE2A000EDD222ED07682F6D77684F4D7DD
:100680007686F2D77688F0D7000E556E010E546E3E
:1006900021D044C0D9FF45C0DAFFDECFF6FFDDCF61
:1006A000F7FF0800F550486E496A4950000AD8A47F
:1006B000EBD74850200AD8B4E3D7030AD8B4E2D71E
:1006C000080AD8B4DBD7060AD8B4CDD71D0AD8B4E7
:1006D000D3D7DAD754505510D8B4DBD776B076924A
:1006E00044C0D9FF45C0DAFFDECFF6FFDDCFF7FF0C
:1006F0000800F5502A0AD8A423D044C0D9FF45C029
:10070000DAFFDE2A000EDD2246C0D9FF47C0DAFF3D
:10071000DFCF48F0020EDE26DFCF49F0000EDD22EB
:1007200048C0D9FF49C0DAFFDECF72F0DDCF73F0E9
:1007300073AE3FD07680726C731ED8B0732A39D0F6
:1007400044C0D9FF45C0DAFFDECF0AF0DDCF0BF0A1
:1007500040EC06F00AC072F00BC073F007D044C042
:10076000D9FF45C0DAFFDE2A000EDD22D00E486E2A
:10077000FF0E496E44C0D9FF45C0DAFFDECFF6FF59
:10078000DDCFF7FF0800F5504A6E4B6A48504A2605
:1007900049504B224B5006E10A0E4A5CD8B002D0B9
:1007A000010E01D0000E566E576A56505710D8A44D
:1007B000D6D744C0D9FF45C0DAFFDECFF6FFDDCF84
:1007C000F7FF0800F550640AD8B40DD044C0D9FF33
:1007D00045C0DAFFDECFF6FFDDCFF7FF0800F550AA
:1007E000690AD8A43FD044C0D9FF45C0DAFFDE2A49
:1007F000000EDD2246C0D9FF47C0DAFFDFCF48F048
:10080000020EDE26DFCF49F0000EDD2248C0D9FF00
:1008100049C0DAFFDECF4CF0DDCF4DF0000E4DBE0B
:10082000FF0E4E6E4F6E506E516E526E536E42C042
:100830001EF043C01FF04CC020F04DC021F04EC050
:1008400022F04FC023F050C024F051C025F052C018
:1008500026F053C027F07BEC04F01EC042F01FC00E
:1008600043F0120044C0D9FF45C0DAFFDECFF6FFE7
:10087000DDCFF7FF0800F550250AD8A416D044C0F4
:10088000D9FF45C0DAFFDE2A000EDD22000E046E1D
:10089000250E036E42C005F043C006F034EC08F0AC
:1008A000000E436E010E426E120044C0D9FF45C0D7
:1008B000DAFFDE2A000EDD22000E436E000E426ECD
:1008C000120044C0D9FF45C0DAFFDECFF6FFDDCF0E
:1008D000F7FF0800F550036E046A42C005F043C0FC
:1008E00006F034EC08F044C0D9FF45C0DAFFDE2A38
:1008F000000EDD22D5D720C038F021C039F022C04B
:100900003AF023C03BF024C03CF025C03DF026C0A7
:100910003EF027C03FF03FAE02D0010E01D0000EE6
:10092000366E376A36503710D8B410D03F1E3E1E90
:100930003D1E3C1E3B1E3A1E391E386C000E3922ED
:100940003A223B223C223D223E223F2275AE769245
:1009500075BE05D0755008E17404D8B005D0000EFE
:10096000336E010E326E04D074C032F075C033F0B5
:1009700072C034F073C035F036503710D8A402D0AE
:1009800076A403D03406D8A03506000E416E1F0EA3
:10099000406E000E00019F6F7CD04006D8A041063B
:1009A000800E4024D96E000E4120DA6E38C003F06C
:1009B00039C004F03AC005F03BC006F03CC007F077
:1009C0003DC008F03EC009F03FC00AF00A0E0B6EB1
:1009D000000E0C6E000E0D6E000E0E6E000E0F6EF1
:1009E000000E106E000E116E000E126EE0EC06F09E
:1009F00003C028F004C029F005C02AF006C02BF07F
:100A000007C02CF008C02DF009C02EF00AC02FF04E
:100A100028C015F02AC016F012EC0AF01550300F5D
:100A2000DF6E3206D8A033063406D8A0350638C0AB
:100A300003F039C004F03AC005F03BC006F03CC0FA
:100A400007F03DC008F03EC009F03FC00AF00A0EB2
:100A50000B6E000E0C6E000E0D6E000E0E6E000E74
:100A60000F6E000E106E000E116E000E126E9CECDA
:100A700005F003C038F004C039F005C03AF006C0F4
:100A80003BF007C03CF008C03DF009C03EF00AC092
:100A90003FF041BE1FD0415003E14004D8A01AD01E
:100AA000385039103A103B103C103D103E103F10AA
:100AB000D8A473D733BE05D0335002E13204D8B086
:100AC0006CD735BE07D0355003E13404D8A002D02E
:100AD00076B263D736503710D8A402D076A417D098
:100AE0004006D8A0410636503710D8A404D0000ED6
:100AF000316E2B0E03D0000E316E2D0E306E800E37
:100B00004024D96E000E4120DA6E30C0DFFF1EC0D7
:100B100013F01FC014F0800E4024156E000E41200B
:100B2000166E34C017F035C018F084EC08F013C00E
:100B30001EF014C01FF01200000E146E12AE12D080
:100B4000121E111E101E0F1E0E1E0D1E0C1E0B6CF3
:100B5000000E0C220D220E220F2210221122122230
:100B6000010E146E0AAE12D00A1E091E081E071EC0
:100B7000061E051E041E036C000E0422052206221A
:100B80000722082209220A22010E141A20EE15F06B
:100B9000070EDE6AE806FDE20B500C100D100E1079
:100BA0000F10101011101210D8B446D0010E136E91
:100BB0000AD0D8900B360C360D360E360F3610365E
:100BC00011361236132A12AEF4D7D89015361636CF
:100BD0001736183619361A361B361C360B50035C7E
:100BE0000C5004580D5005580E5006580F50075819
:100BF000105008581150095812500A58D8A011D056
:100C00000B50035E0C50045A0D50055A0E50065AF4
:100C10000F50075A1050085A1150095A12500A5AC8
:100C20001580D8901232113210320F320E320D323E
:100C30000C320B32132EC9D71450D8B410D01C1E4E
:100C40001B1E1A1E191E181E171E161E156C000ECE
:100C500016221722182219221A221B221C2215C022
:100C600003F016C004F017C005F018C006F019C054
:100C700007F01AC008F01BC009F01CC00AF01200EF
:100C8000000E186E000E176E000E116E000E106E24
:100C900002D00A4A0B2A010E166E0AC0F6FF0BC0DC
:100CA000F7FF0800F550200AD8B418D0F70E0C6EE4
:100CB000FF0E0D6E0AC0F6FF0BC0F7FF0800F550DF
:100CC0000E6E0F6A0C500E260D500F220F5004E1CD
:100CD000050E0E5CD8A002D0000E166E16C012F0E3
:100CE000136A12501310D8B408D0D3D7000E116E67
:100CF000010E106E0A4A0B2A2ED00AC0F6FF0BC056
:100D0000F7FF0800F5500C6E0D6A0D50000AD8A4CC
:100D100022D00C502B0AD8B4EDD7060AD8B4E6D7A7
:100D20001AD017C003F018C004F0000E066E0A0EA9
:100D3000056E6BEC0AF00AC0F6FF0BC0F7FF080067
:100D4000F550035E000E045A300E0324176E000E99
:100D50000420186ECFD7D00E0C6EFF0E0D6E0AC099
:100D6000F6FF0BC0F7FF0800F5500E6E0F6A0C502F
:100D70000E260D500F220F5006E10A0E0E5CD8B061
:100D800002D0010E01D0000E146E156A1450151019
:100D9000D8A4C7D710501110D8A40DD017C00CF08C
:100DA00018C00DF00C1E0D1E0C4A0D2A0CC00AF0C6
:100DB0000DC00BF0120017C00AF018C00BF01200A3
:100DC000000E146E0AAE12D00A1E091E081E071E5F
:100DD000061E051E041E036C000E042205220622B8
:100DE0000722082209220A22010E146E12AE10D028
:100DF000121E111E101E0F1E0E1E0D1E0C1E0B6C41
:100E0000000E0C220D220E220F221022112212227D
:100E10000B500C100D100E100F101010111012109E
:100E2000D8B43CD0010E136E0AD0D8900B360C36D5
:100E30000D360E360F36103611361236132A12AE14
:100E4000F4D70B50035C0C5004580D5005580E504D
:100E500006580F5007581050085811500958125092
:100E60000A58D8A010D00B50035E0C50045A0D50F5
:100E7000055A0E50065A0F50075A1050085A115072
:100E8000095A12500A5AD8901232113210320F32C7
:100E90000E320D320C320B32132ED3D71450D8B47D
:100EA00010D00A1E091E081E071E061E051E041E5F
:100EB000036C000E042205220622072208220922C2
:100EC0000A2203C003F004C004F005C005F006C008
:100ED00006F007C007F008C008F009C009F00AC012
:100EE0000AF01200066E100E036E06508DEC0AF02A
:100EF000056E053A8C500518EF0B05188C6E200E08
:100F0000036E06508DEC0AF0056E053A05468C50CE
:100F10000518DF0B05188C6E400E036E06508DEC25
:100F20000AF0056E053A054605468C500518BF0BBC
:100F300005188C6E800E036E06508DEC0AF0056E5F
:100F4000053205328C5005187F0B05188C6E8D828A
:100F50008D92420EE82EFED700D0010E036E065091
:100F60008DEC0AF0056E053A8C500518EF0B05184C
:100F70008C6E020E036E06508DEC0AF0056E053A7B
:100F800005468C500518DF0B05188C6E040E036E99
:100F900006508DEC0AF0056E053A054605468C5064
:100FA0000518BF0B05188C6E080E036E06508DECED
:100FB0000AF0056E053205328C5005187F0B0518B6
:100FC0008C6E8D828D921200010E936E000E816EDA
:100FD0000F0EC16E900EF26EF18CCFEC08F0020E87
:100FE000096E0F0E0A6E060E0B6E010E17EC09F05D
:100FF000020E096E010E0A6E060E0B6E020E17EC43
:1010000009F00B0E0001B16F260EB06F5D0EE82ED9
:10101000FED7B02FFCD7B12FFAD700D0784A792A63
:1010200079BE0AD0E80E785C030E7958D8A004D0B7
:10103000000E796E000E786EA00E606E000E616E6E
:101040001C0E626E060E636E78C064F079C065F0A7
:10105000B0EC09F00C0E096EA00E0A6E000E0B6EBD
:10106000020E17EC09F0CDD705500610D8B404D005
:1010700005500610D8A404D0035097EC0AF01200D3
:1010800020EE04F00550D9260650DA22DE50DE109C
:10109000D8B416D020EE04F00550D9260650DA2236
:1010A00010EE02F00550E1260650E222DE50E65C2A
:1010B000E650800A0B6EDE50800A0B58D8B0120042
:1010C00020EE02F00550D9260650DA22DECF07F0D6
:1010D000DDCF08F005C0D9FF06C0DAFFDECF09F08A
:1010E000DDCF0AF007500924D96E08500A20DA6EC5
:1010F00003C0DFFF20EE02F00550D9260650DA22A9
:10110000DE2A000EDD22120076A00AD015C00CF0F7
:1011100016C00DF013C00EF014C00FF0F6EC09F07D
:1011200018BE05D017C01CF018C01DF004D0000E6A
:101130001D6E000E1C6E000E1B6E000E1A6E0CD083
:10114000000E046E200E036E13C005F014C006F0EE
:1011500034EC08F01A4A1B2A1C501A5C1B50800AF7
:10116000196E1D50800A1958D8A0EAD776B00AD057
:1011700015C00CF016C00DF013C00EF014C00FF027
:10118000F6EC09F015C003F016C004F043EC0AF0C9
:101190001C500324136E1D500420146E1200000E08
:1011A000956E96909692000E8C6E8D908D92270E75
:1011B000076EF50EE82EFED7072EFCD700F0000EC6
:1011C000086E300E72EC07F00D0E076EFC0EE82E66
:1011D000FED7072EFCD7082A020E0864F2D7020EAB
:1011E00072EC07F01A0EE82EFED700D0280E72EC33
:1011F00007F01A0EE82EFED700D0010E72EC07F0B1
:10120000060E076E300EE82EFED7072EFCD700D054
:101210000C0E72EC07F01A0EE82EFED700D0060E68
:1012200072EC07F01A0EE82EFED700D012000D6EF9
:101230000D04D8A403D009507F0F06D0020E0D185C
:10124000D8A403D00950BF0F0C6E0CC007F0000EDD
:101250007EEC0AF016D00AC0F6FF0BC0F7FFF86A62
:10126000050EF76403D00800F55005D0F6CFE1FF76
:10127000F7CFE2FFE750076E010E7EEC0AF00A4A54
:101280000B2A0AC0F6FF0BC0F7FFF86A050EF764D9
:1012900003D00800F55005D0F6CFE1FFF7CFE2FF0D
:1012A000E7500009D8B41200D6D70600F2A22CD01D
:1012B0007B2A090E7B6428D0000E7B6E0DD08188BE
:1012C00023D0818A21D0818C1FD0818E1DD0000E29
:1012D000816E000E7A6E18D07A2A7A50016E026AF8
:1012E0000250000AD8A410D00150010AD8B4E7D7A0
:1012F000030AD8B4E6D7010AD8B4E5D7070AD8B4A8
:10130000E4D7010AD8B4E3D7F2927C9211005AC014
:101310005EF05BC05FF0000E716E000E706E12D05A
:1013200058C042F059C043F05E0E446E000E456E48
:101330005CC046F05DC047F011EC03F042507026EF
:10134000435071225EC0F6FF5FC0F7FF0800F55002
:101350000009D8A4E5D770C058F071C059F0120048
:10136000640E686E000E696E60C06AF061C06BF05A
:10137000000E6D6E000E6C6E000E6F6E000E6E6EC7
:101380006A0E586E000E596E62C05AF063C05BF070
:10139000680E5C6E000E5D6E87EC09F06C50602488
:1013A000D96E6D506120DA6E000EDF6E1200010EF4
:1013B000096E200E03180410D8B414D0F70E056E71
:1013C000FF0E066E03C007F004C008F005500726A4
:1013D00006500822085004E1050E075CD8A002D090
:1013E000000E096E09C003F0046A1200000E126EAE
:1013F000000E116E0BD010C003F0046A0EC005F091
:101400000FC006F034EC08F0114A122A11500C24D7
:10141000D96E12500D20DA6EDF50106E1050D8B415
:101420001200E9D716BE05D0165010E11504D8B049
:101430000DD015C017F016C018F0171E181E174A49
:10144000182A17C015F018C016F0120015C015F0B4
:1014500016C016F01200D00E056EFF0E066E03C009
:1014600007F004C008F0055007260650082208506F
:1014700006E10A0E075CD8B002D0010E01D0000EC2
:10148000036E046A120003C005F004C006F002D027
:10149000034A042A03C0D9FF04C0DAFFDF50D8A4EE
:1014A000F7D70550035C036E06500458046E120013
:1014B00000EE80F0300EEE6AE806FDE100EE70F01E
:1014C0000C0EEE6AE806FDE17C907C92000EF86E50
:1014D0000001E4EF07F003500502F3CF07F0F4CF6B
:1014E00008F003500602F350082604500502F3509A
:1014F000082607C003F008C004F01200086E08B008
:1015000002D08D9001D08D80420EE82EFED700D003
:101510008D92075072EC07F01200046E0450031411
:101520000009D8B402D0010E1200000E1200120001
:020000040020DA
:08000000FFFFFFFFFFFFFFFF00
:020000040030CA
:0E000000FF02181EFF8181FF0FC00FE00F40AE
:00000001FF
