:020000040000FA
:0400000055EF3FF089
:107EAA00096A046A036A026A016A0001CCEF3FF0B8
:107EBA00800E8A6E000E026E000E016E02BE06D0A1
:107ECA00025016E1080E015CD8B01200020E066ECE
:107EDA00040E056EBA0EE82EFED7052EFCD7062E26
:107EEA00FAD700D0D8908A308A6E014A022AE6D799
:107EFA001200010E8A6E000E026E000E016E02BEA4
:107F0A0006D0025016E1080E015CD8B01200020E2B
:107F1A00066E040E056EBA0EE82EFED7052EFCD7A5
:107F2A00062EFAD700D08A508A248A6E014A022A7B
:107F3A00E6D71200000E026E000E016E02BE06D0D7
:107F4A00025022E1050E015CD8B01ED0000E8A6EE6
:107F5A00020E066E040E056EBA0EE82EFED7052E28
:107F6A00FCD7062EFAD700D08A68020E066E040ED7
:107F7A00056EBA0EE82EFED7052EFCD7062EFAD7C6
:107F8A0000D0014A022ADAD7000E8A6E1200000EC9
:107F9A00936E000E8A6E948082A003D0034A042A4C
:107FAA00098003040410D8B409A003D09FEC3FF061
:107FBA000990020E03180410D8B409A003D07EEC6D
:107FCA003FF00990030E03180410D8B409A007D093
:107FDA005DEC3FF0000E046E000E036E0990040E75
:107FEA00086E0C0E076E340EE82EFED7072EFCD74D
:067FFA00082EFAD7D1D7D2
:020000040020DA
:08000000FFFFFFFFFFFFFFFF00
:020000040030CA
:0E000000FF02181EFF8181FF0FC00FE00F40AE
:00000001FF
