:020000040000FA
:040000003EEF00F0DF
:100018007580D8CF01F0E8CF02F0E0CF03F0F2A46A
:1000280021D0714A722A72BE18D0725004E1280E8B
:10003800715CD8A012D0000E726E000E716E734AF9
:10004800742A74BE0AD0E80E735C030E7458D8A0E4
:1000580004D0000E746E000E736E000ED76E3D0E47
:10006800D66EF29403C0E0FF02C0E8FF01C0D8FFDB
:080078007590100024EF0AF05E
:1006000000434F4E544147454D3A2030303000545E
:10061000494D4552300025303364000045C0D9FFB4
:1006200046C0DAFFDECFF6FFDDCFF7FF0800F5505A
:10063000250AD8A443D145C0D9FF46C0DAFFDE2A37
:10064000000EDD22000E6C6E000E6B6E6BC06FF044
:100650006CC070F06D686E68000E566E000E14D09F
:100660006F8045C0D9FF46C0DAFFDE2A000EDD22CA
:100670002ED06F82F6D76F84F4D76F86F2D76F884B
:10068000F0D7000E566E010E556E21D045C0D9FF31
:1006900046C0DAFFDECFF6FFDDCFF7FF0800F550EA
:1006A000496E4A6A4A50000AD8A4EBD74950200A3A
:1006B000D8B4E3D7030AD8B4E2D7080AD8B4DBD752
:1006C000060AD8B4CDD71D0AD8B4D3D7DAD7555037
:1006D0005610D8B4DBD76FB06F9245C0D9FF46C073
:1006E000DAFFDECFF6FFDDCFF7FF0800F5502A0A6C
:1006F000D8A423D045C0D9FF46C0DAFFDE2A000EB9
:10070000DD2247C0D9FF48C0DAFFDFCF49F0020E33
:10071000DE26DFCF4AF0000EDD2249C0D9FF4AC0F5
:10072000DAFFDECF6BF0DDCF6CF06CAE3FD06F80C8
:100730006B6C6C1ED8B06C2A39D045C0D9FF46C04E
:10074000DAFFDECF0BF0DDCF0CF03DEC06F00BC096
:100750006BF00CC06CF007D045C0D9FF46C0DAFF83
:10076000DE2A000EDD22D00E496EFF0E4A6E45C015
:10077000D9FF46C0DAFFDECFF6FFDDCFF7FF080076
:10078000F5504B6E4C6A49504B264A504C224C5007
:1007900006E10A0E4B5CD8B002D0010E01D0000E6B
:1007A000576E586A57505810D8A4D6D745C0D9FFAD
:1007B00046C0DAFFDECFF6FFDDCFF7FF0800F550C9
:1007C000640AD8B40DD045C0D9FF46C0DAFFDECFE9
:1007D000F6FFDDCFF7FF0800F550690AD8A43FD037
:1007E00045C0D9FF46C0DAFFDE2A000EDD2247C031
:1007F000D9FF48C0DAFFDFCF49F0020EDE26DFCF97
:100800004AF0000EDD2249C0D9FF4AC0DAFFDECF30
:100810004DF0DDCF4EF0000E4EBEFF0E4F6E506E0F
:10082000516E526E536E546E43C01FF044C020F0A0
:100830004DC021F04EC022F04FC023F050C024F034
:1008400051C025F052C026F053C027F054C028F004
:1008500078EC04F01FC043F020C044F0120045C003
:10086000D9FF46C0DAFFDECFF6FFDDCFF7FF080085
:10087000F550250AD8A416D045C0D9FF46C0DAFFE6
:10088000DE2A000EDD22000E056E250E046E43C02A
:1008900006F044C007F0E1EC07F0000E446E010ED4
:1008A000436E120045C0D9FF46C0DAFFDE2A000EB3
:1008B000DD22000E446E000E436E120045C0D9FFCB
:1008C00046C0DAFFDECFF6FFDDCFF7FF0800F550B8
:1008D000046E056A43C006F044C007F0E1EC07F07F
:1008E00045C0D9FF46C0DAFFDE2A000EDD22D5D78B
:1008F00021C039F022C03AF023C03BF024C03CF0C4
:1009000025C03DF026C03EF027C03FF028C040F093
:1009100040AE02D0010E01D0000E376E386A37505B
:100920003810D8B410D0401E3F1E3E1E3D1E3C1E47
:100930003B1E3A1E396C000E3A223B223C223D22DD
:100940003E223F2240226EAE6F926EBE05D06E50A8
:1009500008E16D04D8B005D0000E346E010E336E80
:1009600004D06DC033F06EC034F06BC035F06CC095
:1009700036F037503810D8A402D06FA403D0350613
:10098000D8A03606000E426E1F0E416E000E00010A
:100990009F6F7CD04106D8A04206800E4124D96EBC
:1009A000000E4220DA6E39C004F03AC005F03BC0B8
:1009B00006F03CC007F03DC008F03EC009F03FC063
:1009C0000AF040C00BF00A0E0C6E000E0D6E000E09
:1009D0000E6E000E0F6E000E106E000E116E000EE9
:1009E000126E000E136EDDEC06F004C029F005C097
:1009F0002AF006C02BF007C02CF008C02DF009C06B
:100A00002EF00AC02FF00BC030F029C016F02BC01A
:100A100017F0DEEC09F01650300FDF6E3306D8A069
:100A200034063506D8A0360639C004F03AC005F0C1
:100A30003BC006F03CC007F03DC008F03EC009F0E6
:100A40003FC00AF040C00BF00A0E0C6E000E0D6E97
:100A5000000E0E6E000E0F6E000E106E000E116E68
:100A6000000E126E000E136E99EC05F004C039F002
:100A700005C03AF006C03BF007C03CF008C03DF0AE
:100A800009C03EF00AC03FF00BC040F042BE1FD08C
:100A9000425003E14104D8A01AD039503A103B101B
:100AA0003C103D103E103F104010D8A473D734BE08
:100AB00005D0345002E13304D8B06CD736BE07D02D
:100AC000365003E13504D8A002D06FB263D7375057
:100AD0003810D8A402D06FA417D04106D8A042067F
:100AE00037503810D8A404D0000E326E2B0E03D02D
:100AF000000E326E2D0E316E800E4124D96E000E26
:100B00004220DA6E31C0DFFF1FC014F020C015F0A4
:100B1000800E4124166E000E4220176E35C018F06C
:100B200036C019F080EC08F014C01FF015C020F09A
:100B30001200000E156E13AE12D0131E121E111EDF
:100B4000101E0F1E0E1E0D1E0C6C000E0D220E220E
:100B50000F221022112212221322010E156E0BAE4B
:100B600012D00B1E0A1E091E081E071E061E051E99
:100B7000046C000E052206220722082209220A22FE
:100B80000B22010E151A20EE16F0070EDE6AE8069B
:100B9000FDE20C500D100E100F101010111012105D
:100BA0001310D8B446D0010E146E0AD0D8900C366B
:100BB0000D360E360F361036113612361336142A0D
:100BC00013AEF4D7D89016361736183619361A36AB
:100BD0001B361C361D360C50045C0D5005580E504B
:100BE00006580F5007581050085811500958125005
:100BF0000A5813500B58D8A011D00C50045E0D5059
:100C0000055A0E50065A0F50075A1050085A1150E4
:100C1000095A12500A5A13500B5A1680D8901332A0
:100C20001232113210320F320E320D320C32142EBB
:100C3000C9D71550D8B410D01D1E1C1E1B1E1A1E5D
:100C4000191E181E171E166C000E172218221922C4
:100C50001A221B221C221D2216C004F017C005F008
:100C600018C006F019C007F01AC008F01BC009F040
:100C70001CC00AF01DC00BF01200000E196E000E11
:100C8000186E000E126E000E116E02D00B4A0C2A66
:100C9000010E176E0BC0F6FF0CC0F7FF0800F550F1
:100CA000200AD8B418D0F70E0D6EFF0E0E6E0BC0D2
:100CB000F6FF0CC0F7FF0800F5500F6E106A0D50DC
:100CC0000F260E501022105004E1050E0F5CD8A024
:100CD00002D0000E176E17C013F0146A13501410D0
:100CE000D8B408D0D3D7000E126E010E116E0B4A85
:100CF0000C2A2ED00BC0F6FF0CC0F7FF0800F550F1
:100D00000D6E0E6A0E50000AD8A422D00D502B0A88
:100D1000D8B4EDD7060AD8B4E6D71AD018C004F074
:100D200019C005F0000E076E0A0E066E37EC0AF0C9
:100D30000BC0F6FF0CC0F7FF0800F550045E000E74
:100D4000055A300E0424186E000E0520196ECFD7F8
:100D5000D00E0D6EFF0E0E6E0BC0F6FF0CC0F7FF2F
:100D60000800F5500F6E106A0D500F260E5010221D
:100D7000105006E10A0E0F5CD8B002D0010E01D06F
:100D8000000E156E166A15501610D8A4C7D711504C
:100D90001210D8A40DD018C00DF019C00EF00D1E01
:100DA0000E1E0D4A0E2A0DC00BF00EC00CF01200E4
:100DB00018C00BF019C00CF01200000E156E0BAE2F
:100DC00012D00B1E0A1E091E081E071E061E051E37
:100DD000046C000E052206220722082209220A229C
:100DE0000B22010E156E13AE10D0131E121E111E13
:100DF000101E0F1E0E1E0D1E0C6C000E0D220E225C
:100E00000F2210221122122213220C500D100E104C
:100E10000F101010111012101310D8B43CD0010E86
:100E2000146E0AD0D8900C360D360E360F361036AA
:100E3000113612361336142A13AEF4D70C50045C54
:100E40000D5005580E5006580F50075810500858AE
:100E50001150095812500A5813500B58D8A010D0EE
:100E60000C50045E0D50055A0E50065A0F50075A8A
:100E70001050085A1150095A12500A5A13500B5A5E
:100E8000D89013321232113210320F320E320D322C
:100E90000C32142ED3D71550D8B410D00B1E0A1E06
:100EA000091E081E071E061E051E046C000E0522E4
:100EB00006220722082209220A220B2204C004F07B
:100EC00005C005F006C006F007C007F008C008F02E
:100ED00009C009F00AC00AF00BC00BF01200076E3F
:100EE000100E046E075059EC0AF0066E063A8C504C
:100EF0000618EF0B06188C6E200E046E075059EC86
:100F00000AF0066E063A06468C500618DF0B0618E5
:100F10008C6E400E046E075059EC0AF0066E063ACD
:100F2000064606468C500618BF0B06188C6E800EBF
:100F3000046E075059EC0AF0066E063206328C50E9
:100F400006187F0B06188C6E8D828D92420EE82E4D
:100F5000FED700D0010E046E075059EC0AF0066E61
:100F6000063A8C500618EF0B06188C6E020E046EB3
:100F7000075059EC0AF0066E063A06468C500618E1
:100F8000DF0B06188C6E040E046E075059EC0AF045
:100F9000066E063A064606468C500618BF0B061823
:100FA0008C6E080E046E075059EC0AF0066E06327D
:100FB00006328C5006187F0B06188C6E8D828D922F
:100FC000120006500710D8B404D006500710D8A459
:100FD00004D0045063EC0AF0120020EE04F0065036
:100FE000D9260750DA22DE50DE10D8B416D020EE13
:100FF00004F00650D9260750DA2210EE02F006500F
:10100000E1260750E222DE50E65CE650800A0C6ED4
:10101000DE50800A0C58D8B0120020EE02F00650C4
:10102000D9260750DA22DECF08F0DDCF09F006C05E
:10103000D9FF07C0DAFFDECF0AF0DDCF0BF0085092
:101040000A24D96E09500B20DA6E04C0DFFF20EEAF
:1010500002F00650D9260750DA22DE2A000EDD22E1
:101060001200939081900F0EC16EA00EF26EC70E0B
:10107000D56E000ED76E3D0ED66ECBEC08F0060E88
:101080000A6E0F0E0B6E060E0C6E010E13EC09F0BD
:10109000030E0A6E010E0B6E060E0C6E020E13ECA2
:1010A00009F0060E686E130E676EAE0EE82EFED7C0
:1010B000672EFCD7682EFAD781A002D0010E01D08E
:1010C000000EFF0A676E81506718FE0B6718816E6D
:1010D000A00E616E000E626E160E636E060E646EDA
:1010E00073C065F074C066F051EC09F00D0E0A6E25
:1010F000A00E0B6E000E0C6E020E13EC09F0D1D791
:101100006FA00AD016C00DF017C00EF014C00FF07B
:1011100015C010F0C2EC09F019BE05D018C01DF0C2
:1011200019C01EF004D0000E1E6E000E1D6E000EC3
:101130001C6E000E1B6E0CD0000E056E200E046E91
:1011400014C006F015C007F0E1EC07F01B4A1C2A9A
:101150001D501B5C1C50800A1A6E1E50800A1A58C3
:10116000D8A0EAD76FB00AD016C00DF017C00EF0A5
:1011700014C00FF015C010F0C2EC09F016C004F056
:1011800017C005F00FEC0AF01D500424146E1E5019
:101190000520156E1200000E956E96909692000E28
:1011A0008C6E8D908D92270E086EF50EE82EFED770
:1011B000082EFCD700F0000E096E300E6FEC07F021
:1011C0000D0E086EFC0EE82EFED7082EFCD7092A5D
:1011D000020E0964F2D7020E6FEC07F01A0EE82E29
:1011E000FED700D0280E6FEC07F01A0EE82EFED7BF
:1011F00000D0010E6FEC07F0060E086E300EE82EE0
:10120000FED7082EFCD700D00C0E6FEC07F01A0E9C
:10121000E82EFED700D0060E6FEC07F01A0EE82E6F
:10122000FED700D012000E6E0E04D8A403D00A50D0
:101230007F0F06D0020E0E18D8A403D00A50BF0F9D
:101240000D6E0DC008F0000E4AEC0AF016D00BC06F
:10125000F6FF0CC0F7FFF86A050EF76403D008002C
:10126000F55005D0F6CFE1FFF7CFE2FFE750086E6B
:10127000010E4AEC0AF00B4A0C2A0BC0F6FF0CC018
:10128000F7FFF86A050EF76403D00800F55005D0A3
:10129000F6CFE1FFF7CFE2FFE7500009D8B4120024
:1012A000D6D7650E0001B26F000EB36F61C0B4F007
:1012B00062C0B5F0000EB76F000EB66F000EB96FCA
:1012C000000EB86FB40E596E000E5A6E63C05BF01C
:1012D00064C05CF0B20E5D6E000E5E6E7AEC09F0DA
:1012E0000001B6516124D96EB7516220DA6E000E4A
:1012F000DF6E12005BC05FF05CC060F0000E6A6ED3
:10130000000E696E12D059C043F05AC044F05F0E0F
:10131000456E000E466E5DC047F05EC048F00EECB4
:1013200003F04350692644506A225FC0F6FF60C054
:10133000F7FF0800F5500009D8A4E5D769C059F0B7
:101340006AC05AF01200010E0A6E200E0418051031
:10135000D8B414D0F70E066EFF0E076E04C008F066
:1013600005C009F00650082607500922095004E17B
:10137000050E085CD8A002D0000E0A6E0AC004F068
:10138000056A1200000E136E000E126E0BD011C013
:1013900004F0056A0FC006F010C007F0E1EC07F09A
:1013A000124A132A12500D24D96E13500E20DA6EF1
:1013B000DF50116E1150D8B41200E9D717BE05D016
:1013C000175010E11604D8B00DD016C018F017C091
:1013D00019F0181E191E184A192A18C016F019C03B
:1013E00017F0120016C016F017C017F01200D00E3A
:1013F000066EFF0E076E04C008F005C009F0065027
:10140000082607500922095006E10A0E085CD8B0E8
:1014100002D0010E01D0000E046E056A120004C055
:1014200006F005C007F002D0044A052A04C0D9FF1F
:1014300005C0DAFFDF50D8A4F7D70650045C046E6D
:1014400007500558056E120000EE80F0300EEE6A6F
:10145000E806FDE100EE69F00C0EEE6AE806FDE13B
:1014600075907592000EF86E000131EF08F004508F
:101470000602F3CF08F0F4CF09F004500702F3504E
:10148000092605500602F350092608C004F009C0D9
:1014900005F01200096E09B002D08D9001D08D8048
:1014A000420EE82EFED700D08D9208506FEC07F068
:1014B0001200056E055004140009D8B402D0010EC4
:0814C0001200000E12001200E0
:020000040020DA
:08000000FFFFFFFFFFFFFFFF00
:020000040030CA
:0E000000FF02181EFF8181FF0FC00FE00F40AE
:00000001FF
