:020000040000FA
:04000000C9EF3FF015
:107F92000001D7EF3FF0016EACA2D2EF3FF0D4EF79
:107FA2003FF0CDEF3FF001C0ADFF1200AC8AAC98BC
:107FB200AB8EAC94B8960C0EAF6E500ECCEC3FF07C
:107FC200490ECCEC3FF0430ECCEC3FF0310ECCEC42
:107FD2003FF0380ECCEC3FF0460ECCEC3FF0340EC6
:107FE200CCEC3FF0350ECCEC3FF0320ECCEC3FF057
:0E7FF200300ECCEC3FF0FCEF3FF000EF00F063
:020000040020DA
:08000000FFFFFFFFFFFFFFFF00
:020000040030CA
:0E000000FF02181EFF8181FF0FC00FE00F40AE
:00000001FF
