:020000040000FA
:04000000B7EF3FF027
:107F6E000001BAEF3FF0939E939C939A8A9E8A9C4F
:107F7E008A9A92889380948080A80ED08AAE02D07E
:107F8E00010E01D0000EFF0A016E013201328A503D
:107F9E0001187F0B01188A6E81A00ED08AAA02D01A
:107FAE00010E01D0000EFF0A016E013A01468A5001
:107FBE000118DF0B01188A6E82A00FD08AAC02D096
:107FCE00010E01D0000EFF0A016E013A0146014674
:107FDE008A500118BF0B01188A6E040E026E0C0E29
:107FEE00016E340EE82EFED7012EFCD7022EFAD7E4
:027FFE00C3D7E7
:020000040020DA
:08000000FFFFFFFFFFFFFFFF00
:020000040030CA
:0E000000FF02181EFF8181FF0FC00FE00F40AE
:00000001FF
