:020000040000FA
:0400000007EF00F016
:0A0008007B82A9ED1AF04BEF1FF008
:1006000000436F6E76657273616F20412F443A200C
:1006100043616E61697320414E6F206520414E3108
:100620000D0A0054656D703A2025302E3166202D5C
:1006300020566F6C743A202530346C75206D560D41
:100640000A00494E46004E414E00696E66006E61DA
:090650006E006C66006C75000080
:10065A00000E00019B6F000E9A6F5AC0ACF05BC08F
:10066A00ADF05CC0AEF05DC0AFF0AFBF41EF03F0DC
:10067A003FEF03F057EF03F0000E9B6F010E9A6FE6
:10068A00ACC004F0ADC005F0AEC006F0AFC007F0D4
:10069A00F8EC1EF004C0ACF005C0ADF006C0AEF038
:1006AA0007C0AFF0000E0001B36F000EB26FF6C0C4
:1006BA009FF0F7C0A0F09A519B11D8A467EF03F0FE
:1006CA0069EF03F070EF03F078A46EEF03F070EFB8
:1006DA0003F08AEF03F09A519B11D8A477EF03F045
:1006EA0079EF03F07FEF03F0000E856F2B0E846F16
:1006FA0083EF03F0000E856F2D0E846F84C000F126
:10070A00B24BB32B9F07D8A0A007ACC004F0ADC072
:10071A0005F0AEC006F0AFC007F0B2EC19F0040461
:10072A000510D8A49BEF03F09DEF03F0F4EF03F05C
:10073A00BF0E5F6EFF0E606E5E50616E626A5F5042
:10074A0061266050622262500AE11A0E615CD8A0EA
:10075A00B1EF03F0B4EF03F0010EB5EF03F0000EB2
:10076A000001866F876B86518711D8B4BFEF03F0FB
:10077A00C1EF03F0CFEF03F0000EB225046E010EB5
:10078A00B321056E420E066E060E076E14EC1EF0BD
:10079A00DBEF03F0000EB225046E010EB321056EE5
:1007AA004A0E066E060E076E14EC1EF00001FD0ED0
:1007BA009F27FF0EA02358C014F059C015F0000E51
:1007CA00166E010E176E9FC018F0A0C019F041EC0A
:1007DA001CF014C058F015C059F005EF09F0ACC070
:1007EA0004F0ADC005F0AEC006F0AFC007F0B2EC41
:1007FA0019F004500510D8A405EF04F007EF04F02F
:10080A0047EF04F0BF0E5F6EFF0E606E5E50616EC2
:10081A00626A5F5061266050622262500AE11A0ED3
:10082A00615CD8A01BEF04F01EEF04F0010E1FEF6D
:10083A0004F0000E0001886F896B88518911D8B4C1
:10084A0029EF04F02BEF04F039EF04F0000EB22583
:10085A00046E010EB321056E460E066E060E076E75
:10086A0014EC1EF0DBEF03F0000EB225046E010E4D
:10087A00B321056E4E0E066E060E076E14EC1EF0C0
:10088A00DBEF03F0000E0001B46F000EB56F800EAF
:10089A00B66F3F0EB76F000EB16F000EB06FACC0EF
:1008AA0004F0ADC005F0AEC006F0AFC007F0000E10
:1008BA00086E000E096E000E0A6E000E0B6EFAEC40
:1008CA001CF0D8B06BEF04F06DEF04F0F0EF04F019
:1008DA008CEF04F0B4C012F0B5C013F0B6C014F037
:1008EA00B7C015F0000E166E000E176E200E186EA9
:1008FA00410E196E15EC0FF012C0B4F013C0B5F02A
:10090A0014C0B6F015C0B7F00001B04BB12BACC0A3
:10091A002BF0ADC02CF0AEC02DF0AFC02EF0000E03
:10092A00166E000E176E200E186E410E196EB4C0A8
:10093A0012F0B5C013F0B6C014F0B7C015F015EC3C
:10094A000FF012C02FF013C030F014C031F015C0F0
:10095A0032F030EC19F0D8B0B5EF04F0B7EF04F08C
:10096A006FEF04F0D7EF04F0B4C02BF0B5C02CF051
:10097A00B6C02DF0B7C02EF0000E2F6E000E306EEE
:10098A00200E316E410E326E2AEC11F02BC0B4F0FB
:10099A002CC0B5F02DC0B6F02EC0B7F00001B007DC
:1009AA00D8A0B107ACC02BF0ADC02CF0AEC02DF072
:1009BA00AFC02EF0B4C02FF0B5C030F0B6C031F0E1
:1009CA00B7C032F030EC19F0D8A0EEEF04F0F0EF37
:1009DA0004F0B9EF04F05EC00AF00B6AB5EC1DF042
:1009EA000A500001A16FA1C09EF0670EA119D8A4F8
:1009FA0001EF05F003EF05F029EF05F076507710C7
:100A0A00D8A40AEF05F00CEF05F010EF05F0000E80
:100A1A00776E010E766E77BE1DEF05F0775006E110
:100A2A007604D8B01BEF05F01DEF05F023EF05F0B3
:100A3A00000E9D6F060E9C6F32EF05F076C09CF09B
:100A4A0077C09DF032EF05F077BE2EEF05F030EF5C
:100A5A0005F01DEF05F023EF05F0670EA119D8A4E4
:100A6A0039EF05F03BEF05F06AEF05F0B1AF49EF5A
:100A7A0005F0FC0EB05DFF0EB159D8A047EF05F0A6
:100A8A0049EF05F068EF05F0FF0E5F6EFF0E606E2E
:100A9A009CC061F09DC062F05F5061266050622286
:100AAA00B051615C6250800A636EB151800A63582A
:100ABA00D8A062EF05F064EF05F068EF05F0660E66
:100ACA009E6F6AEF05F0650E9E6F9CC094F09DC004
:100ADA0095F0670EA119D8A475EF05F077EF05F028
:100AEA0087EF05F0660E9E19D8A47EEF05F080EF19
:100AFA0005F089EF05F0B1BF87EF05F085EF05F046
:100B0A0089EF05F0944B952B660E9E19D8A490EFA9
:100B1A0005F092EF05F0B2EF05F0B1BF99EF05F0DD
:100B2A0097EF05F0A5EF05F0000EB46F000EB56F54
:100B3A00800EB66F3F0EB76F000EB16F000EB06F2A
:100B4A00670EA119D8B4ACEF05F0AEEF05F0B2EF1D
:100B5A0005F0B0519427B1519523000EAB6F000EEA
:100B6A00AA6FACC0A2F0ADC0A3F0AEC0A4F0AFC0F3
:100B7A00A5F0B4C080F0B5C081F0B6C082F0B7C0AD
:100B8A0083F043EF06F0A2C02BF0A3C02CF0A4C060
:100B9A002DF0A5C02EF0B4C02FF0B5C030F0B6C00D
:100BAA0031F0B7C032F02AEC11F02BC044F02CC05F
:100BBA0045F02DC046F02EC047F0F7EC12F044C0C5
:100BCA00A6F045C0A7F046C0A8F047C0A9F0A6C045
:100BDA0004F0A7C005F0A8C006F0A9C007F0ADEC64
:100BEA0018F004C098F005C099F0A2C02BF0A3C079
:100BFA002CF0A4C02DF0A5C02EF0B4C016F0B5C0DC
:100C0A0017F0B6C018F0B7C019F0A6C012F0A7C006
:100C1A0013F0A8C014F0A9C015F015EC0FF012C01B
:100C2A002FF013C030F014C031F015C032F097EC39
:100C3A001EF02BC0A2F02CC0A3F02DC0A4F02EC031
:100C4A00A5F0B4C02BF0B5C02CF0B6C02DF0B7C0DB
:100C5A002EF0000E2F6E000E306E200E316E410EF9
:100C6A00326E2AEC11F02BC0B4F02CC0B5F02DC0B6
:100C7A00B6F02EC0B7F00001AA4BAB2B9451AA5D77
:100C8A00AB51800A5F6E9551800A5F58D8A050EF29
:100C9A0006F052EF06F0C8EF05F0B4C012F0B5C086
:100CAA0013F0B6C014F0B7C015F0000E166E000EA1
:100CBA00176EA00E186E400E196E15EC0FF012C0CA
:100CCA00A6F013C0A7F014C0A8F015C0A9F0A2C0DE
:100CDA002BF0A3C02CF0A4C02DF0A5C02EF0A6C006
:100CEA002FF0A7C030F0A8C031F0A9C032F030EC24
:100CFA0019F0D8B083EF06F085EF06F090EF06F012
:100D0A00000E0001A66F000EA76F000EA86F000E5E
:100D1A00A96FB9EF06F0A2C004F0A3C005F0A4C001
:100D2A0006F0A5C007F0A6C008F0A7C009F0A8C041
:100D3A000AF0A9C00BF0FAEC1CF0D8A0A7EF06F055
:100D4A00A9EF06F0B9EF06F0000198B1AFEF06F08F
:100D5A00B1EF06F0B9EF06F0000EA66F000EA76F0E
:100D6A00000EA86F000EA96FACC004F0ADC005F06C
:100D7A00AEC006F0AFC007F0A6C008F0A7C009F0E1
:100D8A00A8C00AF0A9C00BF0B5EC0CF004C0A2F0A0
:100D9A0005C0A3F006C0A4F007C0A5F080C0B4F057
:100DAA0081C0B5F082C0B6F083C0B7F0650E00010D
:100DBA009E19D8B4E3EF06F0E5EF06F0EBEF06F084
:100DCA00B0C096F0B1C097F0EFEF06F0000E976F43
:100DDA00000E966F000E936F000E926F000E916FC9
:100DEA00000E906F000EAB6F000EAA6FEBEF07F0CC
:100DFA00A2C02BF0A3C02CF0A4C02DF0A5C02EF0E9
:100E0A00B4C02FF0B5C030F0B6C031F0B7C032F080
:100E1A002AEC11F02BC044F02CC045F02DC046F04E
:100E2A002EC047F0F7EC12F044C0A6F045C0A7F078
:100E3A0046C0A8F047C0A9F0A6C004F0A7C005F0B4
:100E4A00A8C006F0A9C007F0ADEC18F004C098F0ED
:100E5A0005C099F078B834EF07F036EF07F054EF91
:100E6A0007F0000198519911D8A43EEF07F040EF1E
:100E7A0007F054EF07F0670EA119D8A447EF07F05F
:100E8A0049EF07F054EF07F097BF50EF07F04EEF26
:100E9A0007F054EF07F0904B912B9FEF07F00001FA
:100EAA0092519311D8A45CEF07F05EEF07F088EF38
:100EBA0007F097BF65EF07F063EF07F088EF07F0D9
:100ECA00000EB225D96E010EB321DA6E2E0EDF6E38
:100EDA00B24BB32B9F07D8A0A007000E936F010E49
:100EEA00926F88EF07F0000EB225D96E010EB3217A
:100EFA00DA6E300EDF6EB24BB32B9F07D8A0A00775
:100F0A009007D8A0910790519111D8A48FEF07F0BC
:100F1A0091EF07F078EF07F0000EB225D96E010EB7
:100F2A00B321DA6E9851300FDF6EB24BB32B9F07A5
:100F3A00D8A0A007A2C02BF0A3C02CF0A4C02DF00B
:100F4A00A5C02EF0B4C016F0B5C017F0B6C018F0A0
:100F5A00B7C019F0A6C012F0A7C013F0A8C014F0C9
:100F6A00A9C015F015EC0FF012C02FF013C030F025
:100F7A0014C031F015C032F097EC1EF02BC0A2F06D
:100F8A002CC0A3F02DC0A4F02EC0A5F0B4C02BF045
:100F9A00B5C02CF0B6C02DF0B7C02EF0000E2F6EE3
:100FAA00000E306E200E316E410E326E2AEC11F0B8
:100FBA002BC0B4F02CC0B5F02DC0B6F02EC0B7F0DF
:100FCA0000019607D8A09707AA4BAB2B9451AA5DAC
:100FDA00AB51800A5F6E9551800A5F58D8B0F8EF1E
:100FEA0007F0FAEF07F008EF08F0B3BF06EF08F0D2
:100FFA00B35109E14B0EB25DD8A006EF08F008EF35
:10100A0008F0FDEF06F092519311D8A40FEF08F003
:10101A0011EF08F022EF08F078A816EF08F018EFA1
:10102A0008F022EF08F0000EB225D96E010EB321A6
:10103A00DA6E2E0EDF6EB24BB32B000EB225D96ECE
:10104A00010EB321DA6E000EDF6E650E9E19D8A46A
:10105A0031EF08F033EF08F0E0EF03F0000EAB6F6A
:10106A004F0EAA6F000EAA25D96E010EAB21DA6EB9
:10107A00000EDF6E000E9B6F000E9A6FB1BF4AEF33
:10108A0008F048EF08F052EF08F0000E9B6F010ECF
:10109A009A6FB06DB11FD8B0B12B000E9D6F020EC2
:1010AA009C6F83EF08F0AA07D8A0AB07000EAA2509
:1010BA00D96E010EAB21DA6EB0C004F0B1C005F0F2
:1010CA00000E076E0A0E066EA2EC1CF00450300FDA
:1010DA00DF6EB0C004F0B1C005F0000E076E0A0E54
:1010EA00066EDFEC1BF004C0B0F005C0B1F00001E1
:1010FA009C07D8A09D079F07D8A0A007B051B1119F
:10110A00D8A48AEF08F08CEF08F058EF08F09DBFDA
:10111A0099EF08F09D5106E19C05D8B097EF08F0C9
:10112A0099EF08F058EF08F0AA07D8A0AB079A5130
:10113A009B11D8A4A3EF08F0A5EF08F0ABEF08F0D5
:10114A00000E8B6F2B0E8A6FAFEF08F0000E8B6FBD
:10115A002D0E8A6F000EAA25D96E010EAB21DA6E0A
:10116A008AC0DFFF9F07D8A0A007AA07D8A0AB07AD
:10117A00BF0E5F6EFF0E606E5E50616E626A5F50F8
:10118A0061266050622262500AE11A0E615CD8A0A0
:10119A00D1EF08F0D4EF08F0010ED5EF08F0000EF9
:1011AA008E6F8F6B8E518F11D8A4DEEF08F0E0EFAF
:1011BA0008F0E6EF08F0000E8D6F650E8C6FEAEF0F
:1011CA0008F0000E8D6F450E8C6F000EAA25D96EA1
:1011DA00010EAB21DA6E8CC0DFFF9F07D8A0A007F3
:1011EA00000EB225046E010EB321056E000EAA256B
:1011FA00066E010EAB21076E14EC1EF0E0EF03F051
:10120A00120066C0D9FF67C0DAFFDECFF6FFDDCF76
:10121A00F7FF0800F550250AD8A416EF09F018EFD1
:10122A0009F099EF0CF066C0D9FF67C0DAFFDE2A31
:10123A00000EDD22000E0001F76F000EF66FF6C0F9
:10124A0078F0F7C079F076687768000EB96F000E0B
:10125A00B86F76EF09F0788066C0D9FF67C0DAFF09
:10126A00DE2A000EDD2276EF09F0788231EF09F0EE
:10127A00788431EF09F0788631EF09F0788831EF18
:10128A0009F0000EB96F010EB86F76EF09F066C06B
:10129A00D9FF67C0DAFFDECFF6FFDDCFF7FF080020
:1012AA00F5506A6E6B6A6B50000AD8B45FEF09F0AA
:1012BA0046EF09F06A50200AD8B440EF09F0030A51
:1012CA00D8B443EF09F0080AD8B43DEF09F0060A8A
:1012DA00D8B430EF09F01D0AD8B43AEF09F046EF56
:1012EA0009F0B851B911D8B47DEF09F07FEF09F0D0
:1012FA004CEF09F078A084EF09F086EF09F087EF48
:10130A0009F0789266C0D9FF67C0DAFFDECFF6FF30
:10131A00DDCFF7FF0800F5502A0AD8A497EF09F0A5
:10132A0099EF09F0C2EF09F066C0D9FF67C0DAFF8A
:10133A00DE2A000EDD2268C0D9FF69C0DAFFDFCFDE
:10134A006AF0020EDE26DFCF6BF0000EDD226AC0E5
:10135A00D9FF6BC0DAFFDECFF6F0DDCFF7F0F7BFCB
:10136A00BBEF09F0B9EF09F006EF0AF07880F66DE5
:10137A00F71FD8B0F72B06EF0AF066C0D9FF67C08F
:10138A00DAFFDECF0BF0DDCF0CF0D2EC16F00BC09B
:10139A00F6F00CC0F7F0D9EF09F066C0D9FF67C0C4
:1013AA00DAFFDE2A000EDD22D00E6A6EFF0E6B6EA9
:1013BA0066C0D9FF67C0DAFFDECFF6FFDDCFF7FFE1
:1013CA000800F5506C6E6D6A6A506C266B506D227F
:1013DA006D500AE10A0E6C5CD8A0F6EF09F0F9EF3D
:1013EA0009F0010EFAEF09F0000E0001BA6FBB6BAB
:1013FA00BA51BB11D8A404EF0AF006EF0AF0D2EFF3
:10140A0009F066C0D9FF67C0DAFFDECFF6FFDDCF8D
:10141A00F7FF0800F5502E0AD8A416EF0AF018EFC5
:10142A000AF096EF0AF0000E776E000E766E66C02E
:10143A00D9FF67C0DAFFDE2A000EDD2266C0D9FFB7
:10144A0067C0DAFFDECFF6FFDDCFF7FF0800F55001
:10145A002A0AD8A433EF0AF035EF0AF052EF0AF05D
:10146A0066C0D9FF67C0DAFFDE2A000EDD2268C037
:10147A00D9FF69C0DAFFDFCF6AF0020EDE26DFCFBE
:10148A006BF0000EDD226AC0D9FF6BC0DAFFDECF37
:10149A0076F0DDCF77F096EF0AF066C0D9FF67C025
:1014AA00DAFFDECF0BF0DDCF0CF0D2EC16F00BC07A
:1014BA0076F00CC077F069EF0AF066C0D9FF67C012
:1014CA00DAFFDE2A000EDD22D00E6A6EFF0E6B6E88
:1014DA0066C0D9FF67C0DAFFDECFF6FFDDCFF7FFC0
:1014EA000800F5506C6E6D6A6A506C266B506D225E
:1014FA006D500AE10A0E6C5CD8A086EF0AF089EFFB
:10150A000AF0010E8AEF0AF0000E0001BC6FBD6BF3
:10151A00BC51BD11D8A494EF0AF096EF0AF062EF1D
:10152A000AF066C0D9FF67C0DAFFDECFF6FFDDCF6B
:10153A00F7FF0800F5500A6E0B6AB5EC1DF00A5069
:10154A000001CC6FCC51D8B4ADEF0AF0AFEF0AF07E
:10155A00E9EF0AF066C0D9FF67C0DAFFDECF6AF0AA
:10156A00DDCF6BF0010E6A26000E6B226AC0F6FF11
:10157A006BC0F7FF0800F5500A6E0B6AB5EC1DF058
:10158A000A500001CD6FCD51D8B4CEEF0AF0D0EF9A
:10159A000AF0E9EF0AF066C0D9FF67C0DAFFDECFCA
:1015AA006AF0DDCF6BF0020E6A26000E6B226AC06B
:1015BA00F6FF6BC0F7FF0800F5500A6E0B6AB5EC30
:1015CA001DF00A500001CE6F660ECC19D8A4F0EFB8
:1015DA000AF0F2EF0AF032EF0BF066C0D9FF67C0EB
:1015EA00DAFFDECFF6FFDDCFF7FF0800F5CFCFF049
:1015FA0066C0D9FF67C0DAFFDE2A000EDD2268C0A6
:10160A00D9FF69C0DAFFDFCF6AF0040EDE26DFCF2A
:10161A006BF0000EDD226AC0D9FF6BC0DAFFDECFA5
:10162A00C8F0DECFC9F0DECFCAF0DECFCBF064C09F
:10163A0058F065C059F0C8C05AF0C9C05BF0CAC0BA
:10164A005CF0CBC05DF0CFC05EF02DEC03F058C06B
:10165A0064F059C065F0B4EF0CF0CC0E046E000EC5
:10166A00056E520E066E060E076E000E096E020E0B
:10167A00086E9AEC17F004500510D8A447EF0BF047
:10168A0049EF0BF0C5EF0BF066C0D9FF67C0DAFF70
:10169A00DECF6AF0DDCF6BF0010E6A26000E6B22F8
:1016AA006AC0F6FF6BC0F7FF0800F5CFCFF0BF0E98
:1016BA006A6EFF0E6B6E66C0D9FF67C0DAFFDECFB7
:1016CA00F6FFDDCFF7FF0800F5506C6E6D6A6A50C1
:1016DA006C266B506D226D500AE11A0E6C5CD8A014
:1016EA0079EF0BF07CEF0BF0010E7DEF0BF0000EA3
:1016FA000001BE6FBF6BBE51BF11D8B487EF0BF0AC
:10170A0089EF0BF0A3EF0BF068C0D9FF69C0DAFFCD
:10171A00DFCF6AF0040EDE26DFCF6BF0000EDD228B
:10172A006AC0D9FF6BC0DAFFDECFC8F0DECFC9F0DE
:10173A00DECFCAF0DECFCBF0BBEF0BF068C0D9FF2B
:10174A0069C0DAFFDFCF6AF0040EDE26DFCF6BF066
:10175A00000EDD226AC0D9FF6BC0DAFFDECFC8F007
:10176A00DECFC9F0DECFCAF0DECFCBF0020E66C004
:10177A00D9FF67C0DAFFDE26000EDD221CEF0BF070
:10178A0066C0D9FF67C0DAFFDECFF6FFDDCFF7FF0D
:10179A000800F550750AD8A4D5EF0BF0D7EF0BF077
:1017AA0019EF0CF066C0D9FF67C0DAFFDE2A000E17
:1017BA00DD2268C0D9FF69C0DAFFDFCF6AF0020E06
:1017CA00DE26DFCF6BF0000EDD226AC0D9FF6BC0C8
:1017DA00DAFFDECF6CF0DDCF6DF06CC0C0F06DC00B
:1017EA00C1F00001C26BC36BC46BC56BC66BC76B20
:1017FA0064C01FF065C020F0C0C021F0C1C022F053
:10180A00C2C023F0C3C024F0C4C025F0C5C026F06E
:10181A00C6C027F0C7C028F000EC14F01FC064F05F
:10182A0020C065F0B4EF0CF066C0D9FF67C0DAFFDC
:10183A00DECF04F0DDCF05F0550E066E060E076EFC
:10184A00000E096E020E086E9AEC17F0045005108D
:10185A00D8A432EF0CF034EF0CF063EF0CF0020E68
:10186A0066C0D9FF67C0DAFFDE26000EDD2268C037
:10187A00D9FF69C0DAFFDFCF6AF0040EDE26DFCFB8
:10188A006BF0000EDD226AC0D9FF6BC0DAFFDECF33
:10189A006CF0DECF6DF0DECF6EF0DECF6FF06C5005
:1018AA000001C06F6D50C16F6E50C26F6F50C36F31
:1018BA00C46BC56BC66BC76BFDEF0BF066C0D9FF77
:1018CA0067C0DAFFDECFF6FFDDCFF7FF0800F5507D
:1018DA00250AD8A473EF0CF075EF0CF08CEF0CF01E
:1018EA0066C0D9FF67C0DAFFDE2A000EDD22000ECD
:1018FA00056E250E046E64C006F065C007F07AEC2A
:10190A001BF0000E656E010E646EB4EF0CF066C03B
:10191A00D9FF67C0DAFFDE2A000EDD22000E656EEF
:10192A00000E646EB4EF0CF066C0D9FF67C0DAFF30
:10193A00DECFF6FFDDCFF7FF0800F550046E056A2B
:10194A0064C006F065C007F07AEC1BF066C0D9FFE8
:10195A0067C0DAFFDE2A000EDD2286EF0CF01200E5
:10196A000750800B106E07500724126E06AEC0EFA8
:10197A000CF0C2EF0CF0C3EF0CF012801250D8B486
:10198A00C9EF0CF0CBEF0CF0E0EF0CF01228D8A462
:10199A00D1EF0CF0D3EF0CF0DBEF0CF0000E046E7D
:1019AA00000E056E000E066E000E076E068E000E05
:1019BA00076EE8EF0CF0000E046E000E056E000EC6
:1019CA00066E000E076E0B50800B116E1050111828
:1019DA00D8B4F2EF0CF0F4EF0CF0F5EF0CF0108C39
:1019EA000B500B24116E0AAEFDEF0CF0FFEF0CF05A
:1019FA0000EF0DF011801150D8B406EF0DF008EF8A
:101A0A000DF01DEF0DF01128D8A40EEF0DF010EF18
:101A1A000DF018EF0DF0000E086E000E096E000EA4
:101A2A000A6E000E0B6E0A8E000E0B6E25EF0DF07D
:101A3A00000E086E000E096E000E0A6E000E0B6E86
:101A4A001250115CD8B02CEF0DF02EEF0DF055EFBF
:101A5A000DF010AC33EF0DF035EF0DF037EF0DF060
:101A6A00800E101A12C013F011C012F013C011F038
:101A7A0004C013F008C004F013C008F005C013F046
:101A8A0009C005F013C009F006C013F00AC006F039
:101A9A0013C00AF007C013F00BC007F013C00BF015
:101AAA00000E136E125011C00CF00D6A0C5E000E7F
:101ABA000D5A0DBE6AEF0DF00D5009E11A0E0C5CBD
:101ACA00D8A06AEF0DF06CEF0DF0A3EF0DF0045003
:101ADA00051006100710D8A475EF0DF078EF0DF079
:101AEA00010E79EF0DF0000E136E000E046E000E5B
:101AFA00056E000E066E000E076E11C012F0ACEFF6
:101B0A000DF013A08BEF0DF08DEF0DF093EF0DF0AC
:101B1A00D89013300109136E95EF0DF0D890133257
:101B2A0004A09AEF0DF09CEF0DF09DEF0DF0138ECF
:101B3A0007340732063205320432122A1150125C77
:101B4A00D8A0AAEF0DF0ACEF0DF086EF0DF010BCA7
:101B5A00B1EF0DF0B3EF0DF0F3EF0DF01250D8A482
:101B6A00B9EF0DF0BBEF0DF0C5EF0DF0000E046EEE
:101B7A00000E056E000E066E000E076E14EF0FF0D3
:101B8A0008500426095005220A5006220B50072243
:101B9A0007A0D2EF0DF0D4EF0DF080EF0EF013A0F6
:101BAA00D9EF0DF0DBEF0DF0E1EF0DF0D890133027
:101BBA000109136EE3EF0DF0D890133204A0E8EF99
:101BCA000DF0EAEF0DF0EBEF0DF0138E073407324C
:101BDA00063205320432122A80EF0EF00850045CF5
:101BEA00095005580A5006580750800A0C6E0B50C7
:101BFA00800A0C58D8B004EF0EF006EF0EF031EF61
:101C0A000EF00450085C0C6E055009580D6E065013
:101C1A000A580E6E07500B580F6EFF0E0C24046EF6
:101C2A00FF0E0D20056EFF0E0E20066EFF0E0F2012
:101C3A00076E800E101A136C1350D8A427EF0EF0FB
:101C4A0029EF0EF039EF0EF0010E0426000E0522E0
:101C5A000622072239EF0EF00850045E0950055A91
:101C6A000A50065A0B50075A04500510061007105E
:101C7A00D8A442EF0EF044EF0EF079EF0EF01350B5
:101C8A00D8A44AEF0EF04CEF0EF079EF0EF0000EEA
:101C9A00046E000E056E000E066E000E076E14EF3F
:101CAA000FF0D890043605360636073613AE60EFC5
:101CBA000EF062EF0EF063EF0EF0048013A068EFEF
:101CCA000EF06AEF0EF06EEF0EF0D880133670EF5A
:101CDA000EF0D89013361250D8B476EF0EF078EF93
:101CEA000EF079EF0EF0120606AE7EEF0EF080EFE0
:101CFA000EF056EF0EF0000E116E13AE87EF0EF0D7
:101D0A0089EF0EF0A1EF0EF013C00CF07F0E0C1647
:101D1A00D8B492EF0EF094EF0EF098EF0EF0010E99
:101D2A00116EA1EF0EF004A09DEF0EF09FEF0EF0E2
:101D3A00A1EF0EF094EF0EF01150D8B4A7EF0EF009
:101D4A00A9EF0EF0D4EF0EF0010E0426000E0522C4
:101D5A000622072207A0B4EF0EF0B6EF0EF0D4EF7A
:101D6A000EF004C00CF005C00DF006C00EF007C05E
:101D7A000FF00F340F320E320D320C320CC004F059
:101D8A000DC005F00EC006F00FC007F01228D8B437
:101D9A00D1EF0EF0D3EF0EF0D4EF0EF0122A122884
:101DAA00D8B4DAEF0EF0DCEF0EF0E4EF0EF01250DA
:101DBA00D8A4E2EF0EF0E4EF0EF0F6EF0EF0000E0C
:101DCA00046E000E056E000E066E000E076E1250AF
:101DDA00D8A4F2EF0EF0F4EF0EF0F6EF0EF0000ECC
:101DEA00106E12A0FBEF0EF0FDEF0EF000EF0FF0F9
:101DFA00068E01EF0FF0069ED8901230076E10AED5
:101E0A0009EF0FF00BEF0FF00CEF0FF0078E04C085
:101E1A0004F005C005F006C006F007C007F012007E
:101E2A001550800B1E6E15501524246E14AE20EF2B
:101E3A000FF022EF0FF023EF0FF024802450D8B4D4
:101E4A0029EF0FF02BEF0FF03EEF0FF02428D8A464
:101E5A0031EF0FF033EF0FF03BEF0FF0000E126E81
:101E6A00000E136E000E146E000E156E148E46EFE1
:101E7A000FF0000E126E000E136E000E146E000E9E
:101E8A00156E1950800B1E1A195019241F6E18AEA0
:101E9A0051EF0FF053EF0FF054EF0FF01F801F5068
:101EAA00D8B45AEF0FF05CEF0FF06FEF0FF01F2866
:101EBA00D8A462EF0FF064EF0FF06CEF0FF0000E92
:101ECA00166E000E176E000E186E000E196E188E22
:101EDA0077EF0FF0000E166E000E176E000E186EDA
:101EEA00000E196E1F50D8B47DEF0FF07FEF0FF080
:101EFA0087EF0FF02450D8A485EF0FF087EF0FF08B
:101F0A0091EF0FF0000E126E000E136E000E146E9B
:101F1A00000E156E29EF11F018501202F3CF29F0B6
:101F2A00F4CF2AF02950206E216A226A236A2A50A5
:101F3A00256E266A276A286A17501302F3CF29F0FA
:101F4A00F4CF2AF029502026000E21222222232211
:101F5A002A502526000E262227222822165014024D
:101F6A00F3CF29F0F4CF2AF029502026000E21229F
:101F7A00222223222A502526000E26222722282220
:101F8A0022C023F021C022F020C021F0206A16507E
:101F9A001302F3CF29F0F4CF2AF0295020262A5031
:101FAA002122000E2222000E232217501202F3CF02
:101FBA0029F0F4CF2AF0295020262A502122000E97
:101FCA002222000E232222C023F021C022F020C0A8
:101FDA0021F0206A16501202F3CF29F0F4CF2AF02A
:101FEA00295020262A502122000E2222000E2322C6
:101FFA0018501302F3CF29F0F4CF2AF029502526DE
:10200A002A502622000E2722000E282217501402D8
:10201A00F3CF29F0F4CF2AF0295025262A50262278
:10202A00000E2722000E282218501402F3CF29F09E
:10203A00F4CF2AF029501A6E2A501B6E1C6A1D6AA8
:10204A001CC01DF01BC01CF01AC01BF01A6A1A50E3
:10205A0025261B5026221C5027221D50282220C02C
:10206A001AF021C01BF022C01CF023C01DF0190E6B
:10207A0044EF10F0D8901D321C321B321A32E82E6F
:10208A003FEF10F01A5025261B5026221C502722FB
:10209A001D50282222C023F021C022F020C021F0A6
:1020AA00206A1F5024C01AF01B6A1A26000E1B222F
:1020BA00820E1A24296EFF0E1B202A6E7AEF10F068
:1020CA00D890253626362736283623AE6FEF10F0FD
:1020DA0071EF10F072EF10F02580D890203621367B
:1020EA00223623362906D8A02A0627AE7FEF10F01B
:1020FA0081EF10F065EF10F0000E1F6E23AE88EF2F
:10210A0010F08AEF10F0AEEF10F0FF0E20141A6EE6
:10211A00FF0E21141B6EFF0E22141C6E7F0E231459
:10212A001D6E1A501B101C101D10D8B49FEF10F012
:10213A00A1EF10F0A5EF10F0010E1F6EAEEF10F038
:10214A0025A0AAEF10F0ACEF10F0AEEF10F0A1EF5F
:10215A0010F01F50D8B4B4EF10F0B6EF10F0DAEF69
:10216A0010F0010E2526000E26222722282228A05A
:10217A00C1EF10F0C3EF10F0DAEF10F025C01AF03B
:10218A0026C01BF027C01CF028C01DF01D341D32CC
:10219A001C321B321A321AC025F01BC026F01CC092
:1021AA0027F01DC028F0294A2A2A2ABEE5EF10F096
:1021BA002A5008E12928D8A0E5EF10F0E7EF10F03F
:1021CA00F1EF10F0000E256E000E266E800E276EBF
:1021DA007F0E286E1FEF11F02ABEFEEF10F02A5074
:1021EA0006E12904D8B0FCEF10F0FEEF10F00AEF78
:1021FA0011F0000E256E000E266E000E276E000EE0
:10220A00286E000E1E6E1FEF11F029C024F0FF0E7B
:10221A002516FF0E26167F0E2716000E281624A056
:10222A0019EF11F01BEF11F01CEF11F0278ED89067
:10223A002430286E1E50281225C012F026C013F032
:10224A0027C014F028C015F012002E50800B3B6EE8
:10225A002E502E24426E2DAE35EF11F037EF11F0CD
:10226A0038EF11F042804250D8B43EEF11F040EFFF
:10227A0011F055EF11F04228D8A446EF11F048EFBB
:10228A0011F050EF11F0000E2B6E000E2C6E000EA6
:10229A002D6E000E2E6E2D8E000E2E6E5DEF11F03D
:1022AA00000E2B6E000E2C6E000E2D6E000E2E6E82
:1022BA003250800B3B1A32503224436E31AE68EFF3
:1022CA0011F06AEF11F06BEF11F043804350D8B46C
:1022DA0071EF11F073EF11F088EF11F04328D8A4D1
:1022EA0079EF11F07BEF11F083EF11F0000E2F6EF2
:1022FA00000E306E000E316E000E326E318E000E00
:10230A00326E90EF11F0000E2F6E000E306E000E3E
:10231A00316E000E326E2F50301031103210D8A4A8
:10232A0099EF11F09BEF11F0B3EF11F0000E2B6E45
:10233A00000E2C6E000E2D6E000E2E6E800E2D12CB
:10234A007F0E2E123B502E122BC02BF02CC02CF0DD
:10235A002DC02DF02EC02EF0F6EF12F04250D8A468
:10236A00B9EF11F0BBEF11F0C5EF11F0000E2B6EB3
:10237A00000E2C6E000E2D6E000E2E6EF6EF12F071
:10238A00435042C033F0346A335E000E345A7F0E33
:10239A0033243C6E000E34203D6E2BC037F02CC027
:1023AA0038F02DC039F02EC03AF0000E2B6E000E18
:1023BA002C6E000E2D6E000E2E6E000E3E6E000E5E
:1023CA003F6E000E406E000E416E000E436E26EF09
:1023DA0012F04350D8B4F4EF11F0F6EF11F00DEF0C
:1023EA0012F0D8903736383639363A36D8902B36F6
:1023FA002C362D362E3641AE05EF12F007EF12F0CD
:10240A0008EF12F02B80D8903E363F3640364136E0
:10241A002F50375C305038583150395832503A586A
:10242A00D8A01AEF12F01CEF12F025EF12F0418C2F
:10243A002F50375E3050385A3150395A32503A5A42
:10244A00432A190E43642CEF12F02EEF12F0EEEF2E
:10245A0011F03750381039103A10D8B437EF12F05B
:10246A0039EF12F051EF12F03E8051EF12F0D8908E
:10247A002B362C362D362E3641AE46EF12F048EF6B
:10248A0012F049EF12F02B80D8903E363F36403694
:10249A0041363C06D8A03D062DAE56EF12F058EF55
:1024AA0012F03CEF12F0000E436E41AE5FEF12F0F5
:1024BA0061EF12F085EF12F0FF0E3E14336EFF0E3D
:1024CA003F14346EFF0E4014356E7F0E4114366E83
:1024DA003350341035103610D8B476EF12F078EF46
:1024EA0012F07CEF12F0010E436E85EF12F02BA072
:1024FA0081EF12F083EF12F085EF12F078EF12F00D
:10250A004350D8B48BEF12F08DEF12F0B1EF12F006
:10251A00010E2B26000E2C222D222E222EA098EF01
:10252A0012F09AEF12F0B1EF12F02BC033F02CC078
:10253A0034F02DC035F02EC036F03634363235320E
:10254A003432333233C02BF034C02CF035C02DF086
:10255A0036C02EF03C4A3D2A3DBEBCEF12F03D503B
:10256A0008E13C28D8A0BCEF12F0BEEF12F0C9EF88
:10257A0012F0000E3D6E3C68000E2B6E000E2C6EA3
:10258A00000E2D6E000E2E6E3DBED6EF12F03D509F
:10259A0006E13C04D8B0D4EF12F0D6EF12F0E4EF23
:1025AA0012F0000E3D6E000E3C6E000E2B6E000EF9
:1025BA002C6E000E2D6E000E2E6E000E3B6E3CC071
:1025CA0042F042A0EBEF12F0EDEF12F0F0EF12F052
:1025DA002D8EF1EF12F02D9ED89042302E6EA7EF7D
:1025EA0011F01200E0C054F0E1C055F0E2C056F01C
:1025FA00E3C057F044C054F045C055F046C056F009
:10260A0047C057F0810E486EFF0E496E54C04AF01B
:10261A0055C04BF056C04CF057C04DF0180E1BEF8A
:10262A0013F0D8904D324C324B324A32E82E16EF24
:10263A0013F04A504824526E000E4920536E53BE7E
:10264A0030EF13F0535009E1170E525CD8A030EF67
:10265A0013F032EF13F03CEF13F044C044F045C0DE
:10266A0045F046C046F047C047F0FFEF13F053BEAF
:10267A0041EF13F043EF13F0B3EF13F052C048F0F9
:10268A00FF0E496EFF0E4A6E7F0E4B6E000E4C6EA9
:10269A00486652EF13F05AEF13F04C344C324B3277
:1026AA004A324932482E4DEF13F049C04EF04AC023
:1026BA004FF04BC050F04CC051F04E505414486E7D
:1026CA004F505514496E505056144A6E5150571473
:1026DA004B6E485049104A104B10D8A477EF13F0AC
:1026EA0079EF13F07BEF13F032EF13F054C048F098
:1026FA0055C049F056C04AF057C04BF0200E8BEF38
:10270A0013F0D8904B324A3249324832E82E86EFDB
:10271A0013F0485049104A104B10D8B497EF13F0F1
:10272A0099EF13F0A1EF13F04E5054264F50552253
:10273A0050505622515057224E1C486E4F1C496E1B
:10274A00501C4A6E511C4B6E48505416495055162F
:10275A004A5056164B505716F7EF13F054C048F02C
:10276A0055C049F056C04AF057C04BF0200EC3EF8F
:10277A0013F0D8904B324A3249324832E82EBEEF33
:10278A0013F0485049104A104B10D8A4CFEF13F059
:10279A00D1EF13F0DBEF13F0000E546E000E556EFE
:1027AA00000E566E000E576EF7EF13F0D8905434A1
:1027BA00486E5534496E56344A6E57344B6E4850FB
:1027CA0049104A104B10D8B4EDEF13F0EFEF13F0A5
:1027DA00F7EF13F0000E546E000E556E800E566E13
:1027EA00BF0E576E54C044F055C045F056C046F06F
:1027FA0057C047F0120077BE05EF14F007EF14F048
:10280A0008EF14F0789277BE15EF14F0775006E1CE
:10281A007604D8B013EF14F015EF14F01BEF14F090
:10282A00000E326E010E316E1FEF14F076C031F0D9
:10283A0077C032F0F6C033F0F7C034F021C035F07B
:10284A0022C036F023C037F024C038F025C039F052
:10285A0026C03AF027C03BF028C03CF0000E3E6E7E
:10286A004F0E3D6E000E01014F6FB2EF14F03D06A0
:10287A00D8A03E06000E3D24D96E010E3E20DA6E27
:10288A0035C004F036C005F037C006F038C007F08E
:10289A0039C008F03AC009F03BC00AF03CC00BF05E
:1028AA000A0E0C6E000E0D6E000E0E6E000E0F6EEE
:1028BA00000E106E000E116E000E126E000E136ED8
:1028CA0012EC1BF004C029F005C02AF006C02BF058
:1028DA0007C02CF008C02DF009C02EF00AC02FF056
:1028EA000BC030F02950300FDF6E3106D8A0320607
:1028FA003306D8A0340635C004F036C005F037C018
:10290A0006F038C007F039C008F03AC009F03BC0F9
:10291A000AF03CC00BF00A0E0C6E000E0D6E000E93
:10292A000E6E000E0F6E000E106E000E116E000E6F
:10293A00126E000E136E31EC1AF004C035F005C0A9
:10294A0036F006C037F007C038F008C039F009C0C1
:10295A003AF00AC03BF00BC03CF03D503E10D8B4F0
:10296A00B9EF14F0BBEF14F0EBEF14F0355036105A
:10297A003710381039103A103B103C10D8A4C8EF61
:10298A0014F0CAEF14F03CEF14F032BED7EF14F093
:10299A00325006E13104D8B0D5EF14F0D7EF14F075
:1029AA003CEF14F034BEE2EF14F0345008E1330483
:1029BA00D8A0E2EF14F0E4EF14F0EBEF14F078B2E1
:1029CA00E9EF14F0EBEF14F03CEF14F01FC014F031
:1029DA0020C015F0000E3D24166E010E3E20176E23
:1029EA0033C018F034C019F041EC1CF014C01FF0C9
:1029FA0015C020F0120093908190010EC26E0D0E48
:102A0A00C16E870EC06E9D8AF28EF28C81EC1FF029
:102A1A00010E056E060E066EE5EC1DF00B0E0001AA
:102A2A00DF6F260EDE6F5D0EE82EFED7DE2FFCD797
:102A3A00DF2FFAD700D0C294420EE82EFED700D07C
:102A4A00C282C2B22BEF15F02DEF15F026EF15F06A
:102A5A00C4CFF8F00001F96BF851DF6FDE6BC35099
:102A6A00DE25F86F000EDF21F96F000E166E400E9C
:102A7A00176E9C0E186E450E196EF8C004F0F9C058
:102A8A0005F0000E05BEFF0E066E076E010EF8EC8D
:102A9A0015F004C012F005C013F006C014F007C008
:102AAA0015F015EC0FF012C02BF013C02CF014C067
:102ABA002DF015C02EF0000E2F6EC00E306E7F0E58
:102ACA00316E440E326E2AEC11F02BC0ECF02CC0A1
:102ADA00EDF02DC0EEF02EC0EFF0ECC02BF0EDC003
:102AEA002CF0EEC02DF0EFC02EF0000E2F6E000E6F
:102AFA00306E200E316E410E326E2AEC11F02BC070
:102B0A00ECF02CC0EDF02DC0EEF02EC0EFF0C28438
:102B1A00420EE82EFED700D0C282C2B297EF15F05D
:102B2A0099EF15F092EF15F0C4CFF8F00001F96BA8
:102B3A00F851DF6FDE6BC350DE25F86F000EDF2120
:102B4A00F96FF8C004F0F9C005F0000E05BEFF0EDB
:102B5A00066E076E880E086E130E096E000E0A6E58
:102B6A00000E0B6E4FEC1DF004C010F005C011F002
:102B7A0006C012F007C013F0FF0E146E030E156E96
:102B8A00000E166E000E176E27EC18F010C0F0F04B
:102B9A0011C0F1F012C0F2F013C0F3F0500E0001B0
:102BAA00D26F010ED36F230ED46F060ED56FECC011
:102BBA00D6F0EDC0D7F0EEC0D8F0EFC0D9F0F0C033
:102BCA00DAF0F1C0DBF0F2C0DCF0F3C0DDF042EC89
:102BDA001EF0500E056E010E066EE5EC1DF013EFA9
:102BEA0015F007EF00F00C6E0C50D8B4FFEF15F09B
:102BFA0001EF16F023EF16F007BE08EF16F006EF06
:102C0A0016F023EF16F004C008F005C009F006C05C
:102C1A000AF007C00BF0081E091E0A1E0B1E082A1E
:102C2A00000E09220A220B2208C00EF009C00FF07A
:102C3A000AC010F00BC011F02BEF16F004C00EF012
:102C4A0005C00FF006C010F007C011F004500510BF
:102C5A0006100710D8A434EF16F036EF16F040EF3E
:102C6A0016F0000E046E000E056E000E066E000EC3
:102C7A00076ED1EF16F0960E0D6E4AEF16F00D2A7A
:102C8A00D890113210320F320E32000E0E14086E26
:102C9A00000E0F14096E000E10140A6EFE0E1114A7
:102CAA000B6E085009100A100B10D8A45FEF16F02B
:102CBA0061EF16F044EF16F06FEF16F00D2A010ED1
:102CCA000E26000E0F2210221122D8901132103235
:102CDA000F320E32000E0E14086E000E0F14096E1B
:102CEA00000E10140A6EFF0E11140B6E0850091014
:102CFA000A100B10D8A484EF16F086EF16F063EFD3
:102D0A0016F08EEF16F00D06D8900E360F361036E6
:102D1A00113610BE93EF16F095EF16F09DEF16F0F0
:102D2A00020E0D609BEF16F09DEF16F088EF16F07D
:102D3A000DB0A2EF16F0A4EF16F0A5EF16F0109E54
:102D4A00D8900D320DC008F0096A0A6A0B6A08C0E9
:102D5A000BF00A6A096A086A08500E1209500F1223
:102D6A000A5010120B5011120C50D8B4BFEF16F0C3
:102D7A00C1EF16F0C9EF16F007BEC8EF16F0C6EF9E
:102D8A0016F0C9EF16F0118E0EC004F00FC005F050
:102D9A0010C006F011C007F01200000E196E000EE6
:102DAA00186E000E126E000E116EDEEF16F00B4A50
:102DBA000C2A010E176E0BC0F6FF0CC0F7FF0800B5
:102DCA00F550200AD8B4ECEF16F0EEEF16F00BEF40
:102DDA0017F0F70E0D6EFF0E0E6E0BC0F6FF0CC04D
:102DEA00F7FF0800F5500F6E106A0D500F260E50AF
:102DFA001022105009E1050E0F5CD8A007EF17F05A
:102E0A0009EF17F00BEF17F0000E176E17C013F04B
:102E1A00146A13501410D8A415EF17F017EF17F00F
:102E2A00DCEF16F021EF17F0000E126E010E116E94
:102E3A000B4A0C2A56EF17F00BC0F6FF0CC0F7FF2F
:102E4A000800F5500D6E0E6A0E50000AD8B430EF25
:102E5A0017F056EF17F00D502B0AD8B41DEF17F0E4
:102E6A00060AD8B419EF17F056EF17F018C004F095
:102E7A0019C005F0000E076E0A0E066E63EC1FF00D
:102E8A000BC0F6FF0CC0F7FF0800F550045E000EF9
:102E9A00055A300E0424186E000E0520196E1DEF17
:102EAA0017F0D00E0D6EFF0E0E6E0BC0F6FF0CC0A3
:102EBA00F7FF0800F5500F6E106A0D500F260E50DE
:102ECA00102210500AE10A0E0F5CD8A06FEF17F01B
:102EDA0072EF17F0010E73EF17F0000E156E166AF7
:102EEA0015501610D8A47CEF17F07EEF17F03BEFC1
:102EFA0017F011501210D8A485EF17F087EF17F0CA
:102F0A0095EF17F018C00DF019C00EF00D1E0E1E29
:102F1A000D4A0E2A0DC00BF00EC00CF099EF17F0F7
:102F2A0018C00BF019C00CF0120004C00BF005C059
:102F3A000CF006C00DF007C00EF00806D8A009066E
:102F4A00082806E10928D8A4ADEF17F0AFEF17F06B
:102F5A00BCEF17F0000E056E000E046E26EF18F097
:102F6A000B4A0C2A0D4A0E2A0806D8A009060BC0DD
:102F7A00F6FF0CC0F7FFF86A050EF76403D00800E5
:102F8A00F55005D0F6CFE1FFF7CFE2FFE750000991
:102F9A00D8B4D2EF17F0D4EF17F00AEF18F00DC03B
:102FAA00F6FF0EC0F7FF0800F5500009D8B4E0EFAD
:102FBA0017F0E2EF17F00AEF18F008500910D8B42A
:102FCA00E9EF17F0EBEF17F00AEF18F00DC0F6FF74
:102FDA000EC0F7FF0800F5CF0AF00BC0F6FF0CC0D1
:102FEA00F7FFF86A050EF76403D00800F55005D01C
:102FFA00F6CFE1FFF7CFE2FFE7500A18D8B408EF9F
:10300A0018F00AEF18F0B5EF17F00BC0F6FF0CC076
:10301A00F7FFF86A050EF76403D00800F55005D0EB
:10302A00F6CFE1FFF7CFE2FFE7500A6E0DC0F6FFD9
:10303A000EC0F7FF0800F5500A5C046E056AD8A0B6
:10304A0005061200000E196E17BE30EF18F02EEFAB
:10305A0018F03AEF18F0171E161E151E146C000E03
:10306A00152216221722010E196E13BE41EF18F00F
:10307A003FEF18F04BEF18F0131E121E111E106CC2
:10308A00000E112212221322010E191A000E1A6EB4
:10309A00000E1B6E000E1C6E000E1D6E14501510D5
:1030AA0016101710D8B45CEF18F05EEF18F094EF12
:1030BA0018F0010E186E68EF18F0D890143615360D
:1030CA0016361736182A17AE6DEF18F06FEF18F08C
:1030DA0062EF18F0D8901A361B361C361D3614507B
:1030EA00105C155011581650125817501358D8A082
:1030FA0081EF18F083EF18F08CEF18F01450105E7F
:10310A001550115A1650125A1750135A1A80D8903D
:10311A001732163215321432182E6FEF18F0195072
:10312A00D8B49AEF18F09CEF18F0A4EF18F01D1E0F
:10313A001C1E1B1E1A6C000E1B221C221D221AC0EA
:10314A0010F01BC011F01CC012F01DC013F01200C9
:10315A00063407340D6E0D50D8A4B6EF18F0B8EF48
:10316A0018F0C2EF18F0000E046E000E056E000E85
:10317A00066E000E076E2FEF19F004C008F005C0A6
:10318A0009F006C00AF007C00BF0200ED2EF18F0C3
:10319A00D8900B320A3209320832E82ECDEF18F0F5
:1031AA0008500C6E068EFF0E0416FF0E0516FF0E53
:1031BA000616000E0716960E0D5E0DBEE9EF18F004
:1031CA00E7EF18F0FFEF18F00D50800A970FD8B00C
:1031DA00F1EF18F0F3EF18F0F5EF18F0B8EF18F078
:1031EA00D89007320632053204320D3EF5EF18F058
:1031FA0017EF19F01F0E0D6405EF19F007EF19F01C
:10320A000FEF19F0B8EF18F0D890043605360636E5
:10321A0007360D060D50D8A415EF19F017EF19F05F
:10322A0009EF19F00C50D8B41DEF19F01FEF19F07F
:10323A0027EF19F0071E061E051E046C000E052254
:10324A000622072204C004F005C005F006C006F0F5
:10325A0007C007F01200000E2B14336E000E2C1458
:10326A00346E800E2D14356E7F0E2E14366E33504A
:10327A00341035103610D8A445EF19F047EF19F07D
:10328A004FEF19F0000E2B6E000E2C6E000E2D6EF5
:10329A00000E2E6E000E2F14336E000E3014346E94
:1032AA00800E3114356E7F0E3214366E3350341060
:1032BA0035103610D8A464EF19F066EF19F06EEFE6
:1032CA0019F0000E2F6E000E306E000E316E000ED9
:1032DA00326E2EAE73EF19F075EF19F07EEF19F01A
:1032EA002B6C2C1ED8B02C2A2D1ED8B02D2A800E5D
:1032FA002E5632AE83EF19F085EF19F08EEF19F0E2
:10330A002F6C301ED8B0302A311ED8B0312A800E28
:10331A003256000E2B1A000E2C1A000E2D1A800E91
:10332A002E1A000E2F1A000E301A000E311A800EB5
:10333A00321A2F502B5C30502C5831502D583250A5
:10334A002E58D8B0ABEF19F0ADEF19F0B0EF19F075
:10335A00D890B1EF19F0D8801200E4C00EF0E5C0A1
:10336A000FF0E6C010F0E7C011F004C00EF005C07F
:10337A000FF006C010F007C011F00EC008F00FC021
:10338A0009F010C00AF011C00BF0180ED2EF19F0B4
:10339A00D8900B320A3209320832E82ECDEF19F0F2
:1033AA0008500C6E0D6A0C500D10D8A4DFEF19F0FE
:1033BA00E1EF19F001EF1AF0D8900E34086E0F34CD
:1033CA00096E10340A6E11340B6E085009100A1077
:1033DA000B10D8A4F3EF19F0F5EF19F0FBEF19F081
:1033EA00000E056E020E046E30EF1AF0000E056E26
:1033FA00030E046E30EF1AF00C280D10D8A408EF53
:10340A001AF00AEF1AF02CEF1AF00EC008F00FC0EB
:10341A0009F010C00AF011C00BF0090ED890083656
:10342A0009360A360B36E82E13EF1AF0085009103F
:10343A000A100B10D8B424EF1AF027EF1AF0010E75
:10344A0028EF1AF0000E046E056A30EF1AF0000E2B
:10345A00056E040E046E120020EE14F0070EDE6AEA
:10346A00E806FDE20C500D100E100F10101011108E
:10347A0012101310D8B444EF1AF046EF1AF098EF6E
:10348A001AF0010E1C6E54EF1AF0D8900C360D3655
:10349A000E360F3610361136123613361C2A13AE74
:1034AA0059EF1AF05BEF1AF04AEF1AF0D890143677
:1034BA00153616361736183619361A361B360C5084
:1034CA00045C0D5005580E5006580F5007581050FE
:1034DA0008581150095812500A5813500B58D8A0BE
:1034EA0079EF1AF07BEF1AF08CEF1AF00C50045EA9
:1034FA000D50055A0E50065A0F50075A1050085AC6
:10350A001150095A12500A5A13500B5A1480D89063
:10351A0013321232113210320F320E320D320C3295
:10352A001C2E5BEF1AF014C004F015C005F016C08B
:10353A0006F017C007F018C008F019C009F01AC041
:10354A000AF01BC00BF012000600D9CF02F0DACF46
:10355A0003F09EAAB3EF1AF0B5EF1AF00BEF1BF0C7
:10356A00E80E7A24D96EDA6A000EDA228AEC1FF0A3
:10357A00DF6EE80E7A24D96EDA6A000EDA220D0EB0
:10358A00DE18D8A4CBEF1AF0CDEF1AF00AEF1BF031
:10359A004C0E0001E819D8A4D5EF1AF0D7EF1AF0AB
:1035AA00EAEF1AF0440EE919D8A4DEEF1AF0E0EFB8
:1035BA001AF0EAEF1AF0310EEA19D8A4E7EF1AF076
:1035CA00E9EF1AF0EAEF1AF08180440EE819D8A45C
:1035DA00F1EF1AF0F3EF1AF006EF1BF04C0EE919AF
:1035EA00D8A4FAEF1AF0FCEF1AF006EF1BF0310E2E
:1035FA00EA19D8A403EF1BF005EF1BF006EF1BF046
:10360A008190000E7A6E0BEF1BF07A2A9E9A03C005
:10361A00DAFF02C0D9FF7B9211000C500D100E1078
:10362A000F101010111012101310D8B41FEF1BF046
:10363A0021EF1BF069EF1BF0010E146E2FEF1BF048
:10364A00D8900C360D360E360F3610361136123625
:10365A001336142A13AE34EF1BF036EF1BF025EFA6
:10366A001BF00C50045C0D5005580E5006580F50B4
:10367A000758105008581150095812500A58135038
:10368A000B58D8A04BEF1BF04DEF1BF05DEF1BF072
:10369A000C50045E0D50055A0E50065A0F50075A28
:1036AA001050085A1150095A12500A5A13500B5AFC
:1036BA00D89013321232113210320F320E320D32CA
:1036CA000C32142E36EF1BF004C004F005C005F0CE
:1036DA0006C006F007C007F008C008F009C009F0E4
:1036EA000AC00AF00BC00BF0120006500710D8B43B
:1036FA0081EF1BF083EF1BF08CEF1BF006500710D5
:10370A00D8A48AEF1BF08CEF1BF091EF1BF004504A
:10371A0093EC1FF0DEEF1BF020EE04F00650D926E2
:10372A000750DA22DE50DE10D8B49EEF1BF0A0EF6D
:10373A001BF0BBEF1BF020EE04F00650D926075011
:10374A00DA2210EE02F00650E1260750E222DE509D
:10375A00E65CE650800A0C6EDE50800A0C58D8B03F
:10376A00B9EF1BF0BBEF1BF0DEEF1BF020EE02F00F
:10377A000650D9260750DA22DECF08F0DDCF09F04D
:10378A0006C0D9FF07C0DAFFDECF0AF0DDCF0BF0A3
:10379A0008500A24D96E09500B20DA6E04C0DFFFE4
:1037AA0020EE02F00650D9260750DA22DE2A000E51
:1037BA00DD221200000E096E07BEE8EF1BF0E6EFED
:1037CA001BF0EEEF1BF0066C071ED8B0072A010E9D
:1037DA00096E05BEF5EF1BF0F3EF1BF0FBEF1BF0D4
:1037EA00046C051ED8B0052A010E091A000E0B6ECC
:1037FA00000E0A6E06500710D8B406EF1CF008EF48
:10380A001CF030EF1CF0010E086E10EF1CF0D8907F
:10381A0006360736082A07AE15EF1CF017EF1CF01C
:10382A000CEF1CF0D8900A360B360650045C075091
:10383A000558D8A023EF1CF025EF1CF02AEF1CF046
:10384A000650045E0750055A0A80D890073206329D
:10385A00082E17EF1CF00950D8B436EF1CF038EFD9
:10386A001CF03CEF1CF00A6C0B1ED8B00B2A0AC0E5
:10387A0004F00BC005F0120078A046EF1CF048EFE8
:10388A001CF052EF1CF016C00DF017C00EF014C059
:10389A000FF015C010F0BAEC1EF019BE57EF1CF06D
:1038AA0059EF1CF05FEF1CF018C01DF019C01EF094
:1038BA0063EF1CF0000E1E6E000E1D6E000E1C6ED5
:1038CA00000E1B6E75EF1CF0000E056E200E046EC6
:1038DA0014C006F015C007F07AEC1BF01B4A1C2A2C
:1038EA001D501B5C1C50800A1A6E1E50800A1A5802
:1038FA00D8A082EF1CF084EF1CF069EF1CF078B0BE
:10390A0089EF1CF08BEF1CF095EF1CF016C00DF040
:10391A0017C00EF014C00FF015C010F0BAEC1EF06C
:10392A0016C004F017C005F030EC1FF01D50042437
:10393A00146E1E500520156E1200000E096E05BE8B
:10394A00ABEF1CF0A9EF1CF0B1EF1CF0046C051EE4
:10395A00D8B0052A010E096E07BEB8EF1CF0B6EF03
:10396A001CF0BCEF1CF0066C071ED8B0072A0650E4
:10397A000710D8B4C3EF1CF0C5EF1CF0E9EF1CF038
:10398A00010E086ECDEF1CF0D89006360736082ACD
:10399A0007AED2EF1CF0D4EF1CF0C9EF1CF00650B2
:1039AA00045C07500558D8A0DDEF1CF0DFEF1CF0CF
:1039BA00E3EF1CF00650045E0750055AD890073210
:1039CA000632082ED4EF1CF00950D8B4EFEF1CF0E1
:1039DA00F1EF1CF0F5EF1CF0046C051ED8B0052AB7
:1039EA0004C004F005C005F01200000E04140C6EA9
:1039FA00000E05140D6E800E06140E6E7F0E07144F
:103A0A000F6E0C500D100E100F10D8A40FEF1DF0F2
:103A1A0011EF1DF019EF1DF0000E046E000E056E79
:103A2A00000E066E000E076E000E08140C6E000ED5
:103A3A0009140D6E800E0A140E6E7F0E0B140F6E93
:103A4A000C500D100E100F10D8A42EEF1DF030EFF1
:103A5A001DF038EF1DF0000E086E000E096E000E04
:103A6A000A6E000E0B6E085004180FE10950051873
:103A7A000CE10A50061809E10B500718D8B448EFB0
:103A8A001DF04AEF1DF04DEF1DF0D8904EEF1DF0DE
:103A9A00D8801200000E0C6E000E0D6E000E0E6E17
:103AAA00000E0F6E04A05CEF1DF05EEF1DF066EFD6
:103ABA001DF008500C2609500D220A500E220B50F8
:103ACA000F22D890083609360A360B36D8900732B4
:103ADA000632053204320450051006100710D8A425
:103AEA0079EF1DF07BEF1DF057EF1DF00CC004F0CD
:103AFA000DC005F00EC006F00FC007F0120072C02C
:103B0A00D0F073C0D1F0000E0001F56F000EF46F13
:103B1A00A2EF1DF070C064F071C065F0D00E666E41
:103B2A00000E676E74C068F075C069F006EC09F0A3
:103B3A0064500001F4276550F523D0C0F6FFD1C0C8
:103B4A00F7FF0800F5500009D8A4AEEF1DF0B0EF5A
:103B5A001DF08FEF1DF0F4C070F0F5C071F0120087
:103B6A00BF0E0C6EFF0E0D6E0AC00EF00BC00FF0EA
:103B7A000C500E260D500F220F500AE11A0E0E5C41
:103B8A00D8A0CAEF1DF0CDEF1DF0010ECEEF1DF04B
:103B9A00000E106E116A10501110D8B4D7EF1DF034
:103BAA00D9EF1DF0E0EF1DF0200E0A100A6E0B503F
:103BBA000B6EE4EF1DF00AC00AF00BC00BF0120006
:103BCA00FBEF1DF005C0F6FF06C0F7FFF86A050E09
:103BDA00F76403D00800F55005D0F6CFE1FFF7CF20
:103BEA00E2FFE75076EC1FF0054A062A05C0F6FF09
:103BFA0006C0F7FFF86A050EF76403D00800F5500F
:103C0A0005D0F6CFE1FFF7CFE2FFE7500009D8A4CD
:103C1A0011EF1EF013EF1EF0E7EF1DF0120006C0C1
:103C2A000AF007C00BF004C00CF005C00DF00A50F2
:103C3A00086E0B50096E0A4A0B2A08C0F6FF09C023
:103C4A00F7FFF86A0CC0D9FF0DC0DAFF0C4A0D2A3B
:103C5A00050EF76403D00800F55005D0F6CFE1FF52
:103C6A00F7CFE2FFE750DF6EDF50D8A43FEF1EF038
:103C7A0041EF1EF01CEF1EF01200D60E0101846FF8
:103C8A00000E856FD2C086F1D3C087F1000E896F0E
:103C9A00000E886F000E8B6F000E8A6F860E706E94
:103CAA00010E716ED4C072F0D5C073F0840E746EBA
:103CBA00010E756E84EC1DF0010188510001D225B8
:103CCA00D96E010189510001D321DA6E000EDF6E2F
:103CDA001200010E0A6E200E04180510D8B478EFEF
:103CEA001EF07AEF1EF093EF1EF0F70E066EFF0E2F
:103CFA00076E04C008F005C009F0065008260750F0
:103D0A000922095009E1050E085CD8A08FEF1EF0C0
:103D1A0091EF1EF093EF1EF0000E0A6E0AC004F037
:103D2A00056A1200000E2F1A000E301A000E311A00
:103D3A00800E321A2BC004F02CC005F02DC006F0FC
:103D4A002EC007F02FC008F030C009F031C00AF0C9
:103D5A0032C00BF0B5EC0CF004C02BF005C02CF00F
:103D6A0006C02DF007C02EF01200000E136E000ED2
:103D7A00126ECBEF1EF011C004F0056A0FC006F0F8
:103D8A0010C007F07AEC1BF0124A132A12500D24C5
:103D9A00D96E13500E20DA6EDF50116E1150D8A46E
:103DAA00D9EF1EF0DBEF1EF0C0EF1EF01200BF0EBF
:103DBA00066EFF0E076E04C008F005C009F0065033
:103DCA0008260750092209500AE11A0E085CD8A0F1
:103DDA00F1EF1EF0F4EF1EF0010EF5EF1EF0000EEB
:103DEA00046E056A12000450051006100710D8B4B4
:103DFA0001EF1FF003EF1FF00BEF1FF0000E041A84
:103E0A00000E051A000E061A800E071A04C004F0E6
:103E1A0005C005F006C006F007C007F01200D00E74
:103E2A00066EFF0E076E04C008F005C009F00650C2
:103E3A0008260750092209500AE10A0E085CD8A090
:103E4A0029EF1FF02CEF1FF0010E2DEF1FF0000ECF
:103E5A00046E056A120004C006F005C007F038EFC8
:103E6A001FF0044A052A04C0D9FF05C0DAFFDF5053
:103E7A00D8A442EF1FF044EF1FF036EF1FF00650B0
:103E8A00045C046E07500558056E120001EE00F03E
:103E9A00820EEE6AE806FDE100EEE0F01A0EEE6A26
:103EAA00E806FDE17A6A796A786A776A766A7B90C7
:103EBA007B92000EF86E000100EF15F00450060226
:103ECA00F3CF08F0F4CF09F004500702F3500926A3
:103EDA0005500602F350092608C004F009C005F08F
:103EEA001200046EACA27CEF1FF07EEF1FF077EF9A
:103EFA001FF004C0ADFF1200AC8AAB88AC98AB8E41
:103F0A00AC94B8960C0EAF6E12009EAA8FEF1FF0FB
:0E3F1A0091EF1FF08AEF1FF0AE501200120060
:020000040020DA
:08000000FFFFFFFFFFFFFFFF00
:020000040030CA
:0E000000FF02181EFF8181FF0FC00FE00F40AE
:00000001FF
