:020000040000FA
:0400000061EF00F0BC
:100018007580D8CF01F0E8CF02F0E0CF03F0F2A46A
:1000280021D0734A742A74BE18D0745004E1140E97
:10003800735CD8A012D0000E746E000E736E6F4AF7
:10004800702A70BE0AD0705004E1640E6F5CD8A0AC
:1000580004D0000E706E000E6F6E000ED76E3D0E4F
:10006800D66EF2949EA021D0714A722A72BE18D020
:10007800725004E1040E715CD8A012D0000E726EAA
:10008800000E716E6D4A6E2A6EBE0AD06E5004E183
:10009800640E6D5CD8A004D0000E6E6E000E6D6EFE
:1000A8000B0ECF6EDC0ECE6E9E9003C0E0FF02C03A
:0E00B800E8FF01C0D8FF7590100030EF0AF08D
:1006000000434F4E544120544D52303A2030300078
:10061000434F4E544120544D52313A203030002542
:0506200030326400000F
:1006260045C0D9FF46C0DAFFDECFF6FFDDCFF7FFC4
:100636000800F550250AD8A443D145C0D9FF46C0C5
:10064600DAFFDE2A000EDD22000E686E000E676EEF
:1006560067C06BF068C06CF069686A68000E566E19
:10066600000E14D06B8045C0D9FF46C0DAFFDE2AE3
:10067600000EDD222ED06B82F6D76B84F4D76B8604
:10068600F2D76B88F0D7000E566E010E556E21D04C
:1006960045C0D9FF46C0DAFFDECFF6FFDDCFF7FF54
:1006A6000800F550496E4A6A4A50000AD8A4EBD7AA
:1006B6004950200AD8B4E3D7030AD8B4E2D7080AC7
:1006C600D8B4DBD7060AD8B4CDD71D0AD8B4D3D749
:1006D600DAD755505610D8B4DBD76BB06B9245C0FD
:1006E600D9FF46C0DAFFDECFF6FFDDCFF7FF080001
:1006F600F5502A0AD8A423D045C0D9FF46C0DAFF50
:10070600DE2A000EDD2247C0D9FF48C0DAFFDFCF60
:1007160049F0020EDE26DFCF4AF0000EDD2249C088
:10072600D9FF4AC0DAFFDECF67F0DDCF68F068AEEA
:100736003FD06B80676C681ED8B0682A39D045C038
:10074600D9FF46C0DAFFDECF0BF0DDCF0CF042EC6E
:1007560006F00BC067F00CC068F007D045C0D9FFA3
:1007660046C0DAFFDE2A000EDD22D00E496EFF0EED
:100776004A6E45C0D9FF46C0DAFFDECFF6FFDDCFB1
:10078600F7FF0800F5504B6E4C6A49504B264A500D
:100796004C224C5006E10A0E4B5CD8B002D0010E3A
:1007A60001D0000E576E586A57505810D8A4D6D7A5
:1007B60045C0D9FF46C0DAFFDECFF6FFDDCFF7FF33
:1007C6000800F550640AD8B40DD045C0D9FF46C01C
:1007D600DAFFDECFF6FFDDCFF7FF0800F550690A36
:1007E600D8A43FD045C0D9FF46C0DAFFDE2A000EA6
:1007F600DD2247C0D9FF48C0DAFFDFCF49F0020E3D
:10080600DE26DFCF4AF0000EDD2249C0D9FF4AC0FE
:10081600DAFFDECF4DF0DDCF4EF0000E4EBEFF0EFE
:100826004F6E506E516E526E536E546E43C01FF033
:1008360044C020F04DC021F04EC022F04FC023F03E
:1008460050C024F051C025F052C026F053C027F006
:1008560054C028F07DEC04F01FC043F020C044F0E3
:10086600120045C0D9FF46C0DAFFDECFF6FFDDCF66
:10087600F7FF0800F550250AD8A416D045C0D9FFC1
:1008860046C0DAFFDE2A000EDD22000E056E250EBA
:10089600046E43C006F044C007F03AEC08F0000EC0
:1008A600446E010E436E120045C0D9FF46C0DAFF02
:1008B600DE2A000EDD22000E446E000E436E12008C
:1008C60045C0D9FF46C0DAFFDECFF6FFDDCFF7FF22
:1008D6000800F550046E056A43C006F044C007F0F0
:1008E6003AEC08F045C0D9FF46C0DAFFDE2A000E12
:1008F600DD22D5D721C039F022C03AF023C03BF023
:1009060024C03CF025C03DF026C03EF027C03FF095
:1009160028C040F040AE02D0010E01D0000E376E66
:10092600386A37503810D8B410D0401E3F1E3E1ECD
:100936003D1E3C1E3B1E3A1E396C000E3A223B22DF
:100946003C223D223E223F2240226AAE6B926ABE84
:1009560005D06A5008E16904D8B005D0000E346E9F
:10096600010E336E04D069C033F06AC034F067C03C
:1009760035F068C036F037503810D8A402D06BA4D2
:1009860003D03506D8A03606000E426E1F0E416E05
:10099600000E0001A16F7CD04106D8A04206820E4F
:1009A6004124D96E000E4220DA6E39C004F03AC0F6
:1009B60005F03BC006F03CC007F03DC008F03EC065
:1009C60009F03FC00AF040C00BF00A0E0C6E000E94
:1009D6000D6E000E0E6E000E0F6E000E106E000EE7
:1009E600116E000E126E000E136EE2EC06F004C0DD
:1009F60029F005C02AF006C02BF007C02CF008C06D
:100A06002DF009C02EF00AC02FF00BC030F029C01F
:100A160016F02BC017F0EAEC09F01650300FDF6E17
:100A26003306D8A034063506D8A0360639C004F0F9
:100A36003AC005F03BC006F03CC007F03DC008F0E8
:100A46003EC009F03FC00AF040C00BF00A0E0C6E23
:100A5600000E0D6E000E0E6E000E0F6E000E106E66
:100A6600000E116E000E126E000E136E9EEC05F057
:100A760004C039F005C03AF006C03BF007C03CF0B0
:100A860008C03DF009C03EF00AC03FF00BC040F080
:100A960042BE1FD0425003E14104D8A01AD03950BB
:100AA6003A103B103C103D103E103F104010D8A4A9
:100AB60073D734BE05D0345002E13304D8B06CD7B6
:100AC60036BE07D0365003E13504D8A002D06BB24B
:100AD60063D737503810D8A402D06BA417D041067C
:100AE600D8A0420637503810D8A404D0000E326E73
:100AF6002B0E03D0000E326E2D0E316E820E412467
:100B0600D96E000E4220DA6E31C0DFFF1FC014F02E
:100B160020C015F0820E4124166E000E4220176E7C
:100B260035C018F036C019F08AEC08F014C01FF072
:100B360015C020F01200000E156E13AE12D0131E53
:100B4600121E111E101E0F1E0E1E0D1E0C6C000E08
:100B56000D220E220F221022112212221322010E22
:100B6600156E0BAE12D00B1E0A1E091E081E071E9E
:100B7600061E051E046C000E052206220722082208
:100B860009220A220B22010E151A20EE16F0070E74
:100B9600DE6AE806FDE20C500D100E100F10101064
:100BA600111012101310D8B446D0010E146E0AD0CC
:100BB600D8900C360D360E360F36103611361236E4
:100BC6001336142A13AEF4D7D890163617361836BD
:100BD60019361A361B361C361D360C50045C0D5061
:100BE60005580E5006580F50075810500858115007
:100BF600095812500A5813500B58D8A011D00C504F
:100C0600045E0D50055A0E50065A0F50075A1050E2
:100C1600085A1150095A12500A5A13500B5A168084
:100C2600D89013321232113210320F320E320D3288
:100C36000C32142EC9D71550D8B410D01D1E1C1E48
:100C46001B1E1A1E191E181E171E166C000E1722C2
:100C5600182219221A221B221C221D2216C004F059
:100C660017C005F018C006F019C007F01AC008F042
:100C76001BC009F01CC00AF01DC00BF01200000ECC
:100C8600196E000E186E000E126E000E116E02D056
:100C96000B4A0C2A010E176E0BC0F6FF0CC0F7FFAD
:100CA6000800F550200AD8B418D0F70E0D6EFF0EC6
:100CB6000E6E0BC0F6FF0CC0F7FF0800F5500F6E66
:100CC600106A0D500F260E501022105004E1050E2A
:100CD6000F5CD8A002D0000E176E17C013F0146A6E
:100CE60013501410D8B408D0D3D7000E126E010ECC
:100CF600116E0B4A0C2A2ED00BC0F6FF0CC0F7FF64
:100D06000800F5500D6E0E6A0E50000AD8A422D0C7
:100D16000D502B0AD8B4EDD7060AD8B4E6D71AD0A8
:100D260018C004F019C005F0000E076E0A0E066E14
:100D360043EC0AF00BC0F6FF0CC0F7FF0800F550B5
:100D4600045E000E055A300E0424186E000E0520AF
:100D5600196ECFD7D00E0D6EFF0E0E6E0BC0F6FFBE
:100D66000CC0F7FF0800F5500F6E106A0D500F26E5
:100D76000E501022105006E10A0E0F5CD8B002D0B9
:100D8600010E01D0000E156E166A15501610D8A465
:100D9600C7D711501210D8A40DD018C00DF019C025
:100DA6000EF00D1E0E1E0D4A0E2A0DC00BF00EC0C3
:100DB6000CF0120018C00BF019C00CF01200000E57
:100DC600156E0BAE12D00B1E0A1E091E081E071E3C
:100DD600061E051E046C000E0522062207220822A6
:100DE60009220A220B22010E156E13AE10D0131E15
:100DF600121E111E101E0F1E0E1E0D1E0C6C000E56
:100E06000D220E220F2210221122122213220C5022
:100E16000D100E100F101010111012101310D8B460
:100E26003CD0010E146E0AD0D8900C360D360E3614
:100E36000F361036113612361336142A13AEF4D77F
:100E46000C50045C0D5005580E5006580F500758AC
:100E5600105008581150095812500A5813500B5880
:100E6600D8A010D00C50045E0D50055A0E50065AEC
:100E76000F50075A1050085A1150095A12500A5A60
:100E860013500B5AD89013321232113210320F32DD
:100E96000E320D320C32142ED3D71550D8B410D0D2
:100EA6000B1E0A1E091E081E071E061E051E046CC2
:100EB600000E052206220722082209220A220B22F8
:100EC60004C004F005C005F006C006F007C007F030
:100ED60008C008F009C009F00AC00AF00BC00BF000
:100EE6001200076E100E046E075065EC0AF0066ECF
:100EF600063A8C500618EF0B06188C6E200E046E00
:100F0600075065EC0AF0066E063A06468C5006183F
:100F1600DF0B06188C6E400E046E075065EC0AF067
:100F2600066E063A064606468C500618BF0B06188D
:100F36008C6E800E046E075065EC0AF0066E063263
:100F460006328C5006187F0B06188C6E8D828D9299
:100F5600420EE82EFED700D0010E046E075065EC57
:100F66000AF0066E063A8C500618EF0B06188C6EC1
:100F7600020E046E075065EC0AF0066E063A064647
:100F86008C500618DF0B06188C6E040E046E075084
:100F960065EC0AF0066E063A064606468C500618BA
:100FA600BF0B06188C6E080E046E075065EC0AF02F
:100FB600066E063206328C5006187F0B06188C6EAB
:100FC6008D828D9212000F0EC16EE00EF26EC70E6C
:100FD600D56E000ED76E3D0ED66E350ECD6E9D804B
:100FE6000B0ECF6EDC0ECE6ED5EC08F0010E0A6E3F
:100FF600010E0B6E060E0C6E010E1DEC09F0010EB5
:101006000A6E100E0B6E060E0C6E020E1DEC09F02B
:10101600A20E616E000E626E1F0E636E060E646E89
:101026006FC065F070C066F086EC09F00D0E0A6EB2
:10103600A20E0B6E000E0C6E010E1DEC09F0A20E38
:10104600616E000E626E1F0E636E060E646E6DC0DC
:1010560065F06EC066F086EC09F00D0E0A6EA20E03
:101066000B6E000E0C6E020E1DEC09F0D1D7065069
:101076000710D8B404D006500710D8A404D00450E2
:101086006FEC0AF0120020EE04F00650D926075045
:10109600DA22DE50DE10D8B416D020EE04F0065068
:1010A600D9260750DA2210EE02F00650E126075044
:1010B600E222DE50E65CE650800A0C6EDE50800AC4
:1010C6000C58D8B0120020EE02F00650D926075070
:1010D600DA22DECF08F0DDCF09F006C0D9FF07C05F
:1010E600DAFFDECF0AF0DDCF0BF008500A24D96E06
:1010F60009500B20DA6E04C0DFFF20EE02F0065026
:10110600D9260750DA22DE2A000EDD2212006BA055
:101116000AD016C00DF017C00EF014C00FF015C09F
:1011260010F0CEEC09F019BE05D018C01DF019C09C
:101136001EF004D0000E1E6E000E1D6E000E1C6EFC
:10114600000E1B6E0CD0000E056E200E046E14C031
:1011560006F015C007F03AEC08F01B4A1C2A1D5091
:101166001B5C1C50800A1A6E1E50800A1A58D8A0A2
:10117600EAD76BB00AD016C00DF017C00EF014C037
:101186000FF015C010F0CEEC09F016C004F017C031
:1011960005F01BEC0AF01D500424146E1E500520A9
:1011A600156E1200000E956E96909692000E8C6E3D
:1011B6008D908D92270E086EF50EE82EFED7082E1E
:1011C600FCD700F0000E096E300E74EC07F00D0E21
:1011D600086EFC0EE82EFED7082EFCD7092A020E52
:1011E6000964F2D7020E74EC07F01A0EE82EFED749
:1011F60000D0280E74EC07F01A0EE82EFED700D0A9
:10120600010E74EC07F0060E086E300EE82EFED7BF
:10121600082EFCD700D00C0E74EC07F01A0EE82E40
:10122600FED700D0060E74EC07F01A0EE82EFED795
:1012360000D012000E6E0E04D8A403D00A507F0F01
:1012460006D0020E0E18D8A403D00A50BF0F0D6E9A
:101256000DC008F0000E56EC0AF016D00BC0F6FFD3
:101266000CC0F7FFF86A050EF76403D00800F550C6
:1012760005D0F6CFE1FFF7CFE2FFE750086E010E8B
:1012860056EC0AF00B4A0C2A0BC0F6FF0CC0F7FF0F
:10129600F86A050EF76403D00800F55005D0F6CFBE
:1012A600E1FFF7CFE2FFE7500009D8B41200D6D726
:1012B6005BC05FF05CC060F0000E0001816F000E45
:1012C600806F13D059C043F05AC044F05F0E456E8C
:1012D600000E466E5DC047F05EC048F013EC03F0AA
:1012E600435000018027445081235FC0F6FF60C051
:1012F600F7FF0800F5500009D8A4E4D780C059F0DC
:1013060081C05AF01200650E0001B46F000EB56F71
:1013160061C0B6F062C0B7F0000EB96F000EB86FCC
:10132600000EBB6F000EBA6FB60E596E000E5A6EE7
:1013360063C05BF064C05CF0B40E5D6E000E5E6E62
:101346005BEC09F00001B8516124D96EB9516220F5
:10135600DA6E000EDF6E1200010E0A6E200E041801
:101366000510D8B414D0F70E066EFF0E076E04C033
:1013760008F005C009F00650082607500922095052
:1013860004E1050E085CD8A002D0000E0A6E0AC061
:1013960004F0056A1200000E136E000E126E0BD0DA
:1013A60011C004F0056A0FC006F010C007F03AEC51
:1013B60008F0124A132A12500D24D96E13500E202B
:1013C600DA6EDF50116E1150D8B41200E9D717BE8D
:1013D60005D0175010E11604D8B00DD016C018F07D
:1013E60017C019F0181E191E184A192A18C016F027
:1013F60019C017F0120016C016F017C017F0120029
:10140600D00E066EFF0E076E04C008F005C009F088
:101416000650082607500922095006E10A0E085C04
:10142600D8B002D0010E01D0000E046E056A12007B
:1014360004C006F005C007F002D0044A052A04C01D
:10144600D9FF05C0DAFFDF50D8A4F7D70650045CF1
:10145600046E07500558056E120000EE80F0320E3D
:10146600EE6AE806FDE100EE67F00E0EEE6AE806AB
:10147600FDE175907592000EF86E0001E6EF07F03B
:1014860004500602F3CF08F0F4CF09F00450070227
:10149600F350092605500602F350092608C004F049
:1014A60009C005F01200096E09B002D08D9001D076
:1014B6008D80420EE82EFED700D08D92085074EC37
:1014C60007F01200056E055004140009D8B402D0C6
:0A14D600010E1200000E12001200B9
:020000040020DA
:08000000FFFFFFFFFFFFFFFF00
:020000040030CA
:0E000000FF02181EFF8181FF0FC00FE00F40AE
:00000001FF
