:020000040000FA
:0400000007EF00F016
:10000800078209ED00F05EEF00F00600F2A421D0AF
:100018000650D8B408D0032A770E036404D0000E23
:10002800066E000E036E0550D8B408D0022A770E6B
:10003800026404D0000E056E000E026E0450D8B49F
:1000480008D0012A770E016404D0000E046E000E59
:10005800016E000ED76E3D0ED66EF2940792110017
:10006800010E936E92889480000E816E0F0EC16E01
:10007800A00EF26EC70ED56E000ED76E3D0ED66E70
:1000880081A003D0818A010E066E82A003D0818CE4
:10009800010E056E80A803D0818E010E046E0650F5
:1000A800D8B4819A0550D8B4819C0450D8A4E8D714
:1000B800819EE6D7066A056A046A036A026A016ACB
:0A00C80007900792000134EF00F0EA
:020000040020DA
:08000000FFFFFFFFFFFFFFFF00
:020000040030CA
:0E000000FF02181EFF8181FF0FC00FE00F40AE
:00000001FF
