:020000040000FA
:04000000C7EF03F053
:10060000004D6963726F636F6E74726F6C61646FBB
:100610007220504943313846343532300D0A004C8F
:100620004431202D204143454E4445204F204C4528
:10063000440D0A00444C31202D20415041474120B7
:0F0640004F204C45440D0A004C30004C31000057
:100650000F0EC16E93908190DEEC03F0010E076ED9
:10066000060E086EACEC03F01F0E076E060E086E49
:10067000ACEC03F0340E076E060E086EACEC03F023
:100680009EAA45EF03F047EF03F040EF03F0010EA1
:100690000524D96EDA6A000EDA22E7EC03F0DF6E89
:1006A000010E0524D96EDA6A000EDA220D0EDE186C
:1006B000D8A45DEF03F05FEF03F0A7EF03F04C0E5B
:1006C0000118D8A466EF03F068EF03F081EF03F0A0
:1006D000440E0218D8A46FEF03F071EF03F081EF1E
:1006E00003F0310E0318D8A478EF03F07AEF03F08B
:1006F00081EF03F081804B0E076E060E086EACECA6
:1007000003F0440E0118D8A488EF03F08AEF03F039
:10071000A3EF03F04C0E0218D8A491EF03F093EF6F
:1007200003F0A3EF03F0310E0318D8A49AEF03F0FF
:100730009CEF03F0A3EF03F08190480E076E060EC6
:10074000086EACEC03F0000E056E40EF03F0052AD6
:1007500040EF03F000EF00F0B8EF03F007C0F6FF42
:1007600008C0F7FF0800F550D3EC03F0074A082A49
:1007700007C0F6FF08C0F7FF0800F5500009D8A42D
:10078000C4EF03F0C6EF03F0AEEF03F01200056A0A
:10079000046A036A026A016A000EF86E060EF76EBA
:1007A000000128EF03F0066EACA2D9EF03F0DBEFF7
:1007B00003F0D4EF03F006C0ADFF1200AC8AAB88A3
:1007C000AC98AB8EAC94B8960C0EAF6E12009EAA8D
:1007D000ECEF03F0EEEF03F0E7EF03F0AE501200A2
:020000040020DA
:08000000FFFFFFFFFFFFFFFF00
:020000040030CA
:0E000000FF02181EFF8181FF0FC00FE00F40AE
:00000001FF
