:020000040000FA
:0400000063EF3FF07B
:107EC600076A066A056A000169EF3FF0000E936EC5
:107ED600000E8A6E948082A003D0054A062A078087
:107EE60005040610D8B407A02CD0000E046E000EB0
:107EF600036E000E8A6E020E026E040E016EBA0E3C
:107F0600E82EFED7012EFCD7022EFAD700D08A68BB
:107F1600020E026E040E016EBA0EE82EFED7012E78
:107F2600FCD7022EFAD700D0034A042A04BEE1D7B2
:107F3600045004E1050E035CD8A0DBD7000E8A6E60
:107F46000790020E05180610D8B407A020D0010E1F
:107F56008A6E000E046E000E036E020E026E040E92
:107F6600016EBA0EE82EFED7012EFCD7022EFAD7E6
:107F760000D08A508A248A6E034A042A04BEEDD7AA
:107F8600045004E1080E035CD8A0E7D70790030E5F
:107F960005180610D8B407A024D0800E8A6E000EED
:107FA600046E000E036E020E026E040E016EBA0E11
:107FB600E82EFED7012EFCD7022EFAD700D0D89095
:107FC6008A308A6E034A042A04BEEDD7045004E1BF
:107FD600080E035CD8A0E7D7000E066E000E056EED
:107FE6000790040E026E0C0E016E340EE82EFED7BC
:0A7FF600012EFCD7022EFAD76ED739
:020000040020DA
:08000000FFFFFFFFFFFFFFFF00
:020000040030CA
:0E000000FF02181EFF8181FF0FC00FE00F40AE
:00000001FF
