:020000040000FA
:040000004DEF20F0B0
:100600000025302E316620256343002530346C757B
:10061000206D560054656D703A00566F6C743A0048
:10062000494E46004E414E00696E66006E616E0096
:070630006C66006C75000010
:10063800000E00019B6F000E9A6F57C0ACF058C0B7
:10064800ADF059C0AEF05AC0AFF0AFBF30EF03F015
:100658002EEF03F046EF03F0000E9B6F010E9A6F2A
:10066800ACC001F0ADC002F0AEC003F0AFC004F002
:10067800E7EC1FF001C0ACF002C0ADF003C0AEF073
:1006880004C0AFF0000E0001B36F000EB26FEEC0F1
:100698009FF0EFC0A0F09A519B11D8A456EF03F039
:1006A80058EF03F05FEF03F0F2A55DEF03F05FEFA3
:1006B80003F079EF03F09A519B11D8A466EF03F089
:1006C80068EF03F06EEF03F0000E856F2B0E846F5A
:1006D80072EF03F0000E856F2D0E846F84C000F159
:1006E800B24BB32B9F07D8A0A007ACC001F0ADC098
:1006F80002F0AEC003F0AFC004F0FDEC19F0010445
:100708000210D8A48AEF03F08CEF03F0E3EF03F0B4
:10071800BF0E5C6EFF0E5D6E5B505E6E5F6A5C5076
:100728005E265D505F225F500AE11A0E5E5CD8A01B
:10073800A0EF03F0A3EF03F0010EA4EF03F0000E07
:100748000001866F876B86518711D8B4AEEF03F02E
:10075800B0EF03F0BEEF03F0000EB225016E010EFC
:10076800B321026E200E036E060E046ED8EC1EF046
:10077800CAEF03F0000EB225016E010EB321026E1E
:10078800280E036E060E046ED8EC1EF00001FD0E56
:100798009F27FF0EA02355C011F056C012F0000E7F
:1007A800136E010E146E9FC015F0A0C016F033EC46
:1007B8001CF011C055F012C056F0F3EF08F0ACC0B1
:1007C80001F0ADC002F0AEC003F0AFC004F0FDEC24
:1007D80019F001500210D8A4F4EF03F0F6EF03F07B
:1007E80036EF04F0BF0E5C6EFF0E5D6E5B505E6E02
:1007F8005F6A5C505E265D505F225F500AE11A0E08
:100808005E5CD8A00AEF04F00DEF04F0010E0EEFC5
:1008180004F0000E0001886F896B88518911D8B4E3
:1008280018EF04F01AEF04F028EF04F0000EB225D8
:10083800016E010EB321026E240E036E060E046EC5
:10084800D8EC1EF0CAEF03F0000EB225016E010EBF
:10085800B321026E2C0E036E060E046ED8EC1EF049
:10086800CAEF03F0000E0001B46F000EB56F800EE2
:10087800B66F3F0EB76F000EB16F000EB06FACC011
:1008880001F0ADC002F0AEC003F0AFC004F0000E3E
:10089800056E000E066E000E076E000E086E50EC18
:1008A8001DF0D8B05AEF04F05CEF04F0DFEF04F06D
:1008B8007BEF04F0B4C00FF0B5C010F0B6C011F073
:1008C800B7C012F0000E136E000E146E200E156ED7
:1008D800410E166E3CEC0FF00FC0B4F010C0B5F02E
:1008E80011C0B6F012C0B7F00001B04BB12BACC0CC
:1008F80028F0ADC029F0AEC02AF0AFC02BF0000E32
:10090800136E000E146E200E156E410E166EB4C0D6
:100918000FF0B5C010F0B6C011F0B7C012F03CEC43
:100928000FF00FC02CF010C02DF011C02EF012C027
:100938002FF07BEC19F0D8B0A4EF04F0A6EF04F088
:100948005EEF04F0C6EF04F0B4C028F0B5C029F09B
:10095800B6C02AF0B7C02BF0000E2C6E000E2D6E1C
:10096800200E2E6E410E2F6E51EC11F028C0B4F0FF
:1009780029C0B5F02AC0B6F02BC0B7F00001B00707
:10098800D8A0B107ACC028F0ADC029F0AEC02AF09D
:10099800AFC02BF0B4C02CF0B5C02DF0B6C02EF00F
:1009A800B7C02FF07BEC19F0D8A0DDEF04F0DFEF33
:1009B80004F0A8EF04F05BC007F0086AA8EC1EF08A
:1009C80007500001A16FA1C09EF0670EA119D8A41D
:1009D800F0EF04F0F2EF04F018EF05F0F051F11128
:1009E800D8A4F9EF04F0FBEF04F0FFEF04F0000ED9
:1009F800F16F010EF06FF1BF0CEF05F0F15106E158
:100A0800F005D8B00AEF05F00CEF05F012EF05F08D
:100A1800000E9D6F060E9C6F21EF05F0F0C09CF054
:100A2800F1C09DF021EF05F0F1BF1DEF05F01FEFBC
:100A380005F00CEF05F012EF05F0670EA119D8A428
:100A480028EF05F02AEF05F059EF05F0B1AF38EFC0
:100A580005F0FC0EB05DFF0EB159D8A036EF05F0D9
:100A680038EF05F057EF05F0FF0E5C6EFF0E5D6E78
:100A78009CC05EF09DC05FF05C505E265D505F22BA
:100A8800B0515E5C5F50800A606EB151800A605858
:100A9800D8A051EF05F053EF05F057EF05F0660EBB
:100AA8009E6F59EF05F0650E9E6F9CC094F09DC037
:100AB80095F0670EA119D8A464EF05F066EF05F06C
:100AC80076EF05F0660E9E19D8A46DEF05F06FEF6E
:100AD80005F078EF05F0B1BF76EF05F074EF05F09B
:100AE80078EF05F0944B952B660E9E19D8A47FEFEE
:100AF80005F081EF05F0A1EF05F0B1BF88EF05F033
:100B080086EF05F094EF05F0000EB46F000EB56F98
:100B1800800EB66F3F0EB76F000EB16F000EB06F4C
:100B2800670EA119D8B49BEF05F09DEF05F0A1EF72
:100B380005F0B0519427B1519523000EAB6F000E0C
:100B4800AA6FACC0A2F0ADC0A3F0AEC0A4F0AFC015
:100B5800A5F0B4C080F0B5C081F0B6C082F0B7C0CF
:100B680083F032EF06F0A2C028F0A3C029F0A4C099
:100B78002AF0A5C02BF0B4C02CF0B5C02DF0B6C03B
:100B88002EF0B7C02FF051EC11F028C041F029C069
:100B980042F02AC043F02BC044F038EC14F041C0B6
:100BA800A6F042C0A7F043C0A8F044C0A9F0A6C070
:100BB80001F0A7C002F0A8C003F0A9C004F0F8EC47
:100BC80018F001C098F002C099F0A2C028F0A3C0A4
:100BD80029F0A4C02AF0A5C02BF0B4C013F0B5C00A
:100BE80014F0B6C015F0B7C016F0A6C00FF0A7C035
:100BF80010F0A8C011F0A9C012F03CEC0FF00FC023
:100C08002CF010C02DF011C02EF012C02FF086EC81
:100C18001FF028C0A2F029C0A3F02AC0A4F02BC05E
:100C2800A5F0B4C028F0B5C029F0B6C02AF0B7C006
:100C38002BF0000E2C6E000E2D6E200E2E6E410E27
:100C48002F6E51EC11F028C0B4F029C0B5F02AC0BD
:100C5800B6F02BC0B7F00001AA4BAB2B9451AA5D9C
:100C6800AB51800A5C6E9551800A5C58D8A03FEF62
:100C780006F041EF06F0B7EF05F0B4C00FF0B5C0CD
:100C880010F0B6C011F0B7C012F0000E136E000ECF
:100C9800146EA00E156E400E166E3CEC0FF00FC0D1
:100CA800A6F010C0A7F011C0A8F012C0A9F0A2C009
:100CB80028F0A3C029F0A4C02AF0A5C02BF0A6C034
:100CC8002CF0A7C02DF0A8C02EF0A9C02FF07BEC07
:100CD80019F0D8B072EF06F074EF06F07FEF06F067
:100CE800000E0001A66F000EA76F000EA86F000E81
:100CF800A96FA8EF06F0A2C001F0A3C002F0A4C03B
:100D080003F0A5C004F0A6C005F0A7C006F0A8C06F
:100D180007F0A9C008F050EC1DF0D8A096EF06F037
:100D280098EF06F0A8EF06F0000198B19EEF06F0E4
:100D3800A0EF06F0A8EF06F0000EA66F000EA76F52
:100D4800000EA86F000EA96FACC001F0ADC002F094
:100D5800AEC003F0AFC004F0A6C005F0A7C006F00F
:100D6800A8C007F0A9C008F0DCEC0CF001C0A2F0A4
:100D780002C0A3F003C0A4F004C0A5F080C0B4F082
:100D880081C0B5F082C0B6F083C0B7F0650E00012F
:100D98009E19D8B4D2EF06F0D4EF06F0DAEF06F0D9
:100DA800B0C096F0B1C097F0DEEF06F0000E976F76
:100DB800000E966F000E936F000E926F000E916FEB
:100DC800000E906F000EAB6F000EAA6FD9EF07F000
:100DD800A2C028F0A3C029F0A4C02AF0A5C02BF017
:100DE800B4C02CF0B5C02DF0B6C02EF0B7C02FF0AF
:100DF80051EC11F028C041F029C042F02AC043F05C
:100E08002BC044F038EC14F041C0A6F042C0A7F063
:100E180043C0A8F044C0A9F0A6C001F0A7C002F0E2
:100E2800A8C003F0A9C004F0F8EC18F001C098F0CD
:100E380002C099F00001F2B924EF07F026EF07F09D
:100E480043EF07F098519911D8A42DEF07F02FEF31
:100E580007F043EF07F0670EA119D8A436EF07F0A3
:100E680038EF07F043EF07F097BF3FEF07F03DEF8C
:100E780007F043EF07F0904B912B8DEF07F092515D
:100E88009311D8A44AEF07F04CEF07F076EF07F07C
:100E980097BF53EF07F051EF07F076EF07F0000E1A
:100EA800B225D96E010EB321DA6E2E0EDF6EB24B6B
:100EB800B32B9F07D8A0A007000E936F010E926F67
:100EC80076EF07F0000EB225D96E010EB321DA6E67
:100ED800300EDF6EB24BB32B9F07D8A0A007900748
:100EE800D8A0910790519111D8A47DEF07F07FEF1A
:100EF80007F066EF07F0000EB225D96E010EB32198
:100F0800DA6E9851300FDF6EB24BB32B9F07D8A023
:100F1800A007A2C028F0A3C029F0A4C02AF0A5C049
:100F28002BF0B4C013F0B5C014F0B6C015F0B7C0BC
:100F380016F0A6C00FF0A7C010F0A8C011F0A9C005
:100F480012F03CEC0FF00FC02CF010C02DF011C0C7
:100F58002EF012C02FF086EC1FF028C0A2F029C096
:100F6800A3F02AC0A4F02BC0A5F0B4C028F0B5C0E7
:100F780029F0B6C02AF0B7C02BF0000E2C6E000E78
:100F88002D6E200E2E6E410E2F6E51EC11F028C0E2
:100F9800B4F029C0B5F02AC0B6F02BC0B7F00001F4
:100FA8009607D8A09707AA4BAB2B9451AA5DAB51D3
:100FB800800A5C6E9551800A5C58D8B0E6EF07F05D
:100FC800E8EF07F0F6EF07F0B3BFF4EF07F0B3511F
:100FD80009E14B0EB25DD8A0F4EF07F0F6EF07F089
:100FE800ECEF06F092519311D8A4FDEF07F0FFEF54
:100FF80007F010EF08F0F2A904EF08F006EF08F088
:1010080010EF08F0000EB225D96E010EB321DA6E8A
:101018002E0EDF6EB24BB32B000EB225D96E010E29
:10102800B321DA6E000EDF6E650E9E19D8A41FEF8D
:1010380008F021EF08F0CFEF03F0000EAB6F4F0E72
:10104800AA6F000EAA25D96E010EAB21DA6E000E2A
:10105800DF6E000E9B6F000E9A6FB1BF38EF08F07D
:1010680036EF08F040EF08F0000E9B6F010E9A6F04
:10107800B06DB11FD8B0B12B000E9D6F020E9C6FE2
:1010880071EF08F0AA07D8A0AB07000EAA25D96E01
:10109800010EAB21DA6EB0C001F0B1C002F0000E53
:1010A800046E0A0E036EF8EC1CF00150300FDF6E70
:1010B800B0C001F0B1C002F0000E046E0A0E036E5B
:1010C80096EC1CF001C0B0F002C0B1F000019C0722
:1010D800D8A09D079F07D8A0A007B051B111D8A4E8
:1010E80078EF08F07AEF08F046EF08F09DBF87EF39
:1010F80008F09D5106E19C05D8B085EF08F087EF10
:1011080008F046EF08F0AA07D8A0AB079A519B1140
:10111800D8A491EF08F093EF08F099EF08F0000ECB
:101128008B6F2B0E8A6F9DEF08F0000E8B6F2D0EC4
:101138008A6F000EAA25D96E010EAB21DA6E8AC01D
:10114800DFFF9F07D8A0A007AA07D8A0AB07BF0E4C
:101158005C6EFF0E5D6E5B505E6E5F6A5C505E2675
:101168005D505F225F500AE11A0E5E5CD8A0BFEFA7
:1011780008F0C2EF08F0010EC3EF08F0000E8E6F02
:101188008F6B8E518F11D8A4CCEF08F0CEEF08F0FA
:10119800D4EF08F0000E8D6F650E8C6FD8EF08F055
:1011A800000E8D6F450E8C6F000EAA25D96E010EAC
:1011B800AB21DA6E8CC0DFFF9F07D8A0A007000E16
:1011C800B225016E010EB321026E000EAA25036E30
:1011D800010EAB21046ED8EC1EF0CFEF03F0120025
:1011E80063C0D9FF64C0DAFFDECFF6FFDDCFF7FFBB
:1011F8000800F550250AD8A404EF09F006EF09F015
:10120800C0EF0CF063C0D9FF64C0DAFFDE2A000E1D
:10121800DD22000E0001EF6F000EEE6FEEC0F2F05F
:10122800EFC0F3F0F069F169000EB96F000EB86F06
:1012380064EF09F0F28163C0D9FF64C0DAFFDE2AE7
:10124800000EDD2264EF09F0F2831FEF09F0F2854A
:101258001FEF09F0F2871FEF09F0F2891FEF09F07D
:10126800000EB96F010EB86F64EF09F063C0D9FFC3
:1012780064C0DAFFDECFF6FFDDCFF7FF0800F550D8
:10128800676E686A6850000AD8B44DEF09F034EF09
:1012980009F06750200AD8B42EEF09F0030AD8B431
:1012A80031EF09F0080AD8B42BEF09F0060AD8B4D0
:1012B8001EEF09F01D0AD8B428EF09F034EF09F041
:1012C800B851B911D8B46BEF09F06DEF09F03AEFE6
:1012D80009F0F2A172EF09F074EF09F075EF09F067
:1012E800F29363C0D9FF64C0DAFFDECFF6FFDDCF2B
:1012F800F7FF0800F5502A0AD8A485EF09F087EF10
:1013080009F0B0EF09F063C0D9FF64C0DAFFDE2A44
:10131800000EDD2265C0D9FF66C0DAFFDFCF67F0B7
:10132800020EDE26DFCF68F0000EDD2267C0D9FF8F
:1013380068C0DAFFDECFEEF0DDCFEFF0EFBFA9EF48
:1013480009F0A7EF09F0F4EF09F0F281EE6DEF1F55
:10135800D8B0EF2BF4EF09F063C0D9FF64C0DAFF0F
:10136800DECF08F0DDCF09F01DEC17F008C0EEF075
:1013780009C0EFF0C7EF09F063C0D9FF64C0DAFF16
:10138800DE2A000EDD22D00E676EFF0E686E63C087
:10139800D9FF64C0DAFFDECFF6FFDDCFF7FF080024
:1013A800F550696E6A6A6750692668506A226A5001
:1013B8000AE10A0E695CD8A0E4EF09F0E7EF09F04A
:1013C800010EE8EF09F0000E0001BA6FBB6BBA51CD
:1013D800BB11D8A4F2EF09F0F4EF09F0C0EF09F05F
:1013E80063C0D9FF64C0DAFFDECFF6FFDDCFF7FFB9
:1013F8000800F5502E0AD8A404EF0AF006EF0AF008
:1014080084EF0AF0000EF16F000EF06F63C0D9FF91
:1014180064C0DAFFDE2A000EDD2263C0D9FF64C093
:10142800DAFFDECFF6FFDDCFF7FF0800F5502A0A16
:10143800D8A421EF0AF023EF0AF040EF0AF063C0C6
:10144800D9FF64C0DAFFDE2A000EDD2265C0D9FFAD
:1014580066C0DAFFDFCF67F0020EDE26DFCF68F066
:10146800000EDD2267C0D9FF68C0DAFFDECFF0F0DA
:10147800DDCFF1F084EF0AF063C0D9FF64C0DAFF72
:10148800DECF08F0DDCF09F01DEC17F008C0F0F052
:1014980009C0F1F057EF0AF063C0D9FF64C0DAFF62
:1014A800DE2A000EDD22D00E676EFF0E686E63C066
:1014B800D9FF64C0DAFFDECFF6FFDDCFF7FF080003
:1014C800F550696E6A6A6750692668506A226A50E0
:1014D8000AE10A0E695CD8A074EF0AF077EF0AF007
:1014E800010E78EF0AF0000E0001BC6FBD6BBC5115
:1014F800BD11D8A482EF0AF084EF0AF050EF0AF089
:1015080063C0D9FF64C0DAFFDECFF6FFDDCFF7FF97
:101518000800F550076E086AA8EC1EF00750000195
:10152800CC6FCC51D8B49BEF0AF09DEF0AF0D7EFFF
:101538000AF063C0D9FF64C0DAFFDECF67F0DDCF01
:1015480068F0010E6726000E682267C0F6FF68C0C3
:10155800F7FF0800F550076E086AA8EC1EF0075060
:101568000001CD6FCD51D8B4BCEF0AF0BEEF0AF040
:10157800D7EF0AF063C0D9FF64C0DAFFDECF67F0A7
:10158800DDCF68F0020E6726000E682267C0F6FFFE
:1015980068C0F7FF0800F550076E086AA8EC1EF04F
:1015A80007500001CE6F63C0D9FF64C0DAFFDECFF9
:1015B800F6FFDDCFF7FF0800F550630AD8A4E7EF80
:1015C8000AF0E9EF0AF010EF0BF063C0D9FF64C02E
:1015D800DAFFDE2A000EDD2265C0D9FF66C0DAFF19
:1015E800DFCF67F0020EDE26DFCF68F0000EDD22C7
:1015F80067C0D9FF68C0DAFFDF50CF6F61C01CF049
:1016080062C01DF0CFC01EF006EC1FF01CC061F0D8
:101618001DC062F0DBEF0CF0660ECC19D8A417EFF2
:101628000BF019EF0BF059EF0BF063C0D9FF64C052
:10163800DAFFDECFF6FFDDCFF7FF0800F5CFCFF0FA
:1016480063C0D9FF64C0DAFFDE2A000EDD2265C060
:10165800D9FF66C0DAFFDFCF67F0040EDE26DFCFE2
:1016680068F0000EDD2267C0D9FF68C0DAFFDECF60
:10167800C8F0DECFC9F0DECFCAF0DECFCBF061C054
:1016880055F062C056F0C8C057F0C9C058F0CAC07B
:1016980059F0CBC05AF0CFC05BF01CEC03F055C03A
:1016A80061F056C062F0DBEF0CF0CC0E016E000E5C
:1016B800026E300E036E060E046E000E066E020EEB
:1016C800056EE5EC17F001500210D8A46EEF0BF090
:1016D80070EF0BF0ECEF0BF063C0D9FF64C0DAFFDA
:1016E800DECF67F0DDCF68F0010E6726000E6822B6
:1016F80067C0F6FF68C0F7FF0800F5CFCFF0BF0E50
:10170800676EFF0E686E63C0D9FF64C0DAFFDECF74
:10171800F6FFDDCFF7FF0800F550696E6A6A67507B
:10172800692668506A226A500AE11A0E695CD8A0D4
:10173800A0EF0BF0A3EF0BF0010EA4EF0BF0000EDF
:101748000001BE6FBF6BBE51BF11D8B4AEEF0BF036
:10175800B0EF0BF0CAEF0BF065C0D9FF66C0DAFF37
:10176800DFCF67F0040EDE26DFCF68F0000EDD2243
:1017780067C0D9FF68C0DAFFDECFC8F0DECFC9F096
:10178800DECFCAF0DECFCBF0E2EF0BF065C0D9FFB9
:1017980066C0DAFFDFCF67F0040EDE26DFCF68F021
:1017A800000EDD2267C0D9FF68C0DAFFDECFC8F0BF
:1017B800DECFC9F0DECFCAF0DECFCBF0020E63C0B9
:1017C800D9FF64C0DAFFDE26000EDD2243EF0BF0FE
:1017D80063C0D9FF64C0DAFFDECFF6FFDDCFF7FFC5
:1017E8000800F550750AD8A4FCEF0BF0FEEF0BF0DB
:1017F80040EF0CF063C0D9FF64C0DAFFDE2A000EA8
:10180800DD2265C0D9FF66C0DAFFDFCF67F0020EC0
:10181800DE26DFCF68F0000EDD2267C0D9FF68C082
:10182800DAFFDECF69F0DDCF6AF069C0C0F06AC0C8
:10183800C1F00001C26BC36BC46BC56BC66BC76BD1
:1018480061C01CF062C01DF0C0C01EF0C1C01FF016
:10185800C2C020F0C3C021F0C4C022F0C5C023F02C
:10186800C6C024F0C7C025F041EC15F01CC061F0DB
:101878001DC062F0DBEF0CF063C0D9FF64C0DAFF73
:10188800DECF01F0DDCF02F0330E036E060E046EDC
:10189800000E066E020E056EE5EC17F00150021000
:1018A800D8A459EF0CF05BEF0CF08AEF0CF0020EA5
:1018B80063C0D9FF64C0DAFFDE26000EDD2265C0F2
:1018C800D9FF66C0DAFFDFCF67F0040EDE26DFCF70
:1018D80068F0000EDD2267C0D9FF68C0DAFFDECFEE
:1018E80069F0DECF6AF0DECF6BF0DECF6CF06950C6
:1018F8000001C06F6A50C16F6B50C26F6C50C36FEC
:10190800C46BC56BC66BC76B24EF0CF063C0D9FF03
:1019180064C0DAFFDECFF6FFDDCFF7FF0800F55031
:10192800250AD8A49AEF0CF09CEF0CF0B3EF0CF05A
:1019380063C0D9FF64C0DAFFDE2A000EDD22000E84
:10194800026E250E016E61C003F062C004F0CEEC99
:101958001BF0000E626E010E616EDBEF0CF063C0CF
:10196800D9FF64C0DAFFDE2A000EDD22000E626EA7
:10197800000E616EDBEF0CF063C0D9FF64C0DAFFC4
:10198800DECFF6FFDDCFF7FF0800F550016E026AE3
:1019980061C003F062C004F0CEEC1BF063C0D9FF55
:1019A80064C0DAFFDE2A000EDD22ADEF0CF0120073
:1019B8000450800B0D6E045004240F6E03AEE7EF45
:1019C8000CF0E9EF0CF0EAEF0CF00F800F50D8B4F0
:1019D800F0EF0CF0F2EF0CF007EF0DF00F28D8A4A1
:1019E800F8EF0CF0FAEF0CF002EF0DF0000E016EBC
:1019F800000E026E000E036E000E046E038E000EC3
:101A0800046E0FEF0DF0000E016E000E026E000E58
:101A1800036E000E046E0850800B0E6E0D500E18EB
:101A2800D8B419EF0DF01BEF0DF01CEF0DF00D8C75
:101A3800085008240E6E07AE24EF0DF026EF0DF0C7
:101A480027EF0DF00E800E50D8B42DEF0DF02FEFCC
:101A58000DF044EF0DF00E28D8A435EF0DF037EF58
:101A68000DF03FEF0DF0000E056E000E066E000E35
:101A7800076E000E086E078E000E086E4CEF0DF014
:101A8800000E056E000E066E000E076E000E086E44
:101A98000F500E5CD8B053EF0DF055EF0DF07CEF02
:101AA8000DF00DAC5AEF0DF05CEF0DF05EEF0DF0A0
:101AB800800E0D1A0FC010F00EC00FF010C00EF0FF
:101AC80001C010F005C001F010C005F002C010F010
:101AD80006C002F010C006F003C010F007C003F003
:101AE80010C007F004C010F008C004F010C008F0DF
:101AF800000E106E0F500EC009F00A6A095E000E43
:101B08000A5A0ABE91EF0DF00A5009E11A0E095C53
:101B1800D8A091EF0DF093EF0DF0CAEF0DF0015042
:101B2800021003100410D8A49CEF0DF09FEF0DF0E5
:101B3800010EA0EF0DF0000E106E000E016E000EEB
:101B4800026E000E036E000E046E0EC00FF0D3EF8F
:101B58000DF010A0B2EF0DF0B4EF0DF0BAEF0DF0EC
:101B6800D89010300109106EBCEF0DF0D8901032EB
:101B780001A0C1EF0DF0C3EF0DF0C4EF0DF0108E12
:101B8800043404320332023201320F2A0E500F5C41
:101B9800D8A0D1EF0DF0D3EF0DF0ADEF0DF00DBCE7
:101BA800D8EF0DF0DAEF0DF01AEF0EF00F50D8A4C1
:101BB800E0EF0DF0E2EF0DF0ECEF0DF0000E016E2E
:101BC800000E026E000E036E000E046E3BEF0FF067
:101BD800055001260650022207500322085004220D
:101BE80004A0F9EF0DF0FBEF0DF0A7EF0EF010A039
:101BF80000EF0EF002EF0EF008EF0EF0D890103064
:101C08000109106E0AEF0EF0D890103201A00FEF04
:101C18000EF011EF0EF012EF0EF0108E04340432B5
:101C28000332023201320F2AA7EF0EF00550015C91
:101C380006500258075003580450800A096E08508D
:101C4800800A0958D8B02BEF0EF02DEF0EF058EFA0
:101C58000EF00150055C096E025006580A6E0350DA
:101C680007580B6E045008580C6EFF0E0924016EBD
:101C7800FF0E0A20026EFF0E0B20036EFF0E0C20D3
:101C8800046E800E0D1A106C1050D8A44EEF0EF092
:101C980050EF0EF060EF0EF0010E0126000E02224A
:101CA8000322042260EF0EF00550015E0650025A2E
:101CB8000750035A0850045A015002100310041028
:101CC800D8A469EF0EF06BEF0EF0A0EF0EF01050F5
:101CD800D8A471EF0EF073EF0EF0A0EF0EF0000E27
:101CE800016E000E026E000E036E000E046E3BEFD6
:101CF8000FF0D890013602360336043610AE87EF5F
:101D08000EF089EF0EF08AEF0EF0018010A08FEF31
:101D18000EF091EF0EF095EF0EF0D880103697EF99
:101D28000EF0D89010360F50D8B49DEF0EF09FEFFC
:101D38000EF0A0EF0EF00F0603AEA5EF0EF0A7EF22
:101D48000EF07DEF0EF0000E0E6E10AEAEEF0EF040
:101D5800B0EF0EF0C8EF0EF010C009F07F0E0916B4
:101D6800D8B4B9EF0EF0BBEF0EF0BFEF0EF0010ED6
:101D78000E6EC8EF0EF001A0C4EF0EF0C6EF0EF025
:101D8800C8EF0EF0BBEF0EF00E50D8B4CEEF0EF049
:101D9800D0EF0EF0FBEF0EF0010E0126000E02222E
:101DA8000322042204A0DBEF0EF0DDEF0EF0FBEFC0
:101DB8000EF001C009F002C00AF003C00BF004C025
:101DC8000CF00C340C320B320A32093209C001F023
:101DD8000AC002F00BC003F00CC004F00F28D8B4FE
:101DE800F8EF0EF0FAEF0EF0FBEF0EF00F2A0F28C7
:101DF800D8B401EF0FF003EF0FF00BEF0FF00F5017
:101E0800D8A409EF0FF00BEF0FF01DEF0FF0000E45
:101E1800016E000E026E000E036E000E046E0F506F
:101E2800D8A419EF0FF01BEF0FF01DEF0FF0000E05
:101E38000D6E0FA022EF0FF024EF0FF027EF0FF039
:101E4800038E28EF0FF0039ED8900F30046E0DAE6E
:101E580030EF0FF032EF0FF033EF0FF0048E01C0C8
:101E680001F002C002F003C003F004C004F0120045
:101E78001250800B1B6E12501224216E11AE47EFC8
:101E88000FF049EF0FF04AEF0FF021802150D8B43E
:101E980050EF0FF052EF0FF065EF0FF02128D8A4A4
:101EA80058EF0FF05AEF0FF062EF0FF0000E0F6EC1
:101EB800000E106E000E116E000E126E118E6DEF78
:101EC8000FF0000E0F6E000E106E000E116E000E59
:101ED800126E1650800B1B1A16501624206E15AE63
:101EE80078EF0FF07AEF0FF07BEF0FF020802050A3
:101EF800D8B481EF0FF083EF0FF096EF0FF02028A2
:101F0800D8A489EF0FF08BEF0FF093EF0FF0000ECE
:101F1800136E000E146E000E156E000E166E158EE2
:101F28009EEF0FF0000E136E000E146E000E156E6D
:101F3800000E166E2050D8B4A4EF0FF0A6EF0FF0E5
:101F4800AEEF0FF02150D8A4ACEF0FF0AEEF0FF0CA
:101F5800B8EF0FF0000E0F6E000E106E000E116E2F
:101F6800000E126E50EF11F015500F02F3CF26F04D
:101F7800F4CF27F026501C6E1D6A1E6A1F6A275070
:101F8800226E236A246A256A14501002F3CF26F0C1
:101F9800F4CF27F026501C26000E1D221E221F22D9
:101FA80027502226000E2322242225221350110214
:101FB800F3CF26F0F4CF27F026501C26000E1D2262
:101FC8001E221F2227502226000E232224222522E9
:101FD8001EC01FF01DC01EF01CC01DF01C6A13504F
:101FE8001002F3CF26F0F4CF27F026501C262750F6
:101FF8001D22000E1E22000E1F2214500F02F3CFC6
:1020080026F0F4CF27F026501C2627501D22000E5C
:102018001E22000E1F221EC01FF01DC01EF01CC075
:102028001DF01C6A13500F02F3CF26F0F4CF27F0EF
:1020380026501C2627501D22000E1E22000E1F228D
:1020480015501002F3CF26F0F4CF27F026502226A1
:1020580027502322000E2422000E2522145011029C
:10206800F3CF26F0F4CF27F026502226275023223C
:10207800000E2422000E252215501102F3CF26F05F
:10208800F4CF27F02650176E2750186E196A1A6A6F
:1020980019C01AF018C019F017C018F0176A1750AD
:1020A800222618502322195024221A5025221CC0F7
:1020B80017F01DC018F01EC019F01FC01AF0190E35
:1020C8006BEF10F0D8901A32193218321732E82E06
:1020D80066EF10F017502226185023221950242298
:1020E8001A5025221EC01FF01DC01EF01CC01DF076
:1020F8001C6A205021C017F0186A1726000E1822F3
:10210800820E1724266EFF0E1820276EA1EF10F0FE
:10211800D89022362336243625361FAE96EF10F097
:1021280098EF10F099EF10F02280D8901C361D36E9
:102138001E361F362606D8A0270624AEA6EF10F0B6
:10214800A8EF10F08CEF10F0000E206E1FAEAFEF6E
:1021580010F0B1EF10F0D5EF10F0FF0E1C14176E51
:10216800FF0E1D14186EFF0E1E14196E7F0E1F141D
:102178001A6E1750181019101A10D8B4C6EF10F0AC
:10218800C8EF10F0CCEF10F0010E206ED5EF10F074
:1021980022A0D1EF10F0D3EF10F0D5EF10F0C8EF78
:1021A80010F02050D8B4DBEF10F0DDEF10F001EFA5
:1021B80011F0010E2226000E23222422252225A01A
:1021C800E8EF10F0EAEF10F001EF11F022C017F07D
:1021D80023C018F024C019F025C01AF01A341A3296
:1021E80019321832173217C022F018C023F019C05C
:1021F80024F01AC025F0264A272A27BE0CEF11F032
:10220800275008E12628D8A00CEF11F00EEF11F0A6
:1022180018EF11F0000E226E000E236E800E246E51
:102228007F0E256E46EF11F027BE25EF11F02750DF
:1022380006E12604D8B023EF11F025EF11F031EFB5
:1022480011F0000E226E000E236E000E246E000E9A
:10225800256E000E1B6E46EF11F026C021F0FF0E12
:102268002216FF0E23167F0E2416000E251621A017
:1022780040EF11F042EF11F043EF11F0248ED890A7
:102288002130256E1B50251222C00FF023C010F0FC
:1022980024C011F025C012F012002B50800B386EAC
:1022A8002B502B243F6E2AAE5CEF11F05EEF11F03D
:1022B8005FEF11F03F803F50D8B465EF11F067EF42
:1022C80011F07CEF11F03F28D8A46DEF11F06FEFFB
:1022D80011F077EF11F0000E286E000E296E000E37
:1022E8002A6E000E2B6E2A8E000E2B6E84EF11F0D4
:1022F800000E286E000E296E000E2A6E000E2B6E40
:102308002F50800B381A2F502F24406E2EAE8FEF8F
:1023180011F091EF11F092EF11F040804050D8B4D5
:1023280098EF11F09AEF11F0AFEF11F04028D8A410
:10233800A0EF11F0A2EF11F0AAEF11F0000E2C6E31
:10234800000E2D6E000E2E6E000E2F6E2E8E000EBD
:102358002F6EB7EF11F0000E2C6E000E2D6E000ED2
:102368002E6E000E2F6E2C502D102E102F10D8A46C
:10237800C0EF11F0C2EF11F0DAEF11F0000E286E85
:10238800000E296E000E2A6E000E2B6E800E2A1289
:102398007F0E2B1238502B1228C028F029C029F0A4
:1023A8002AC02AF02BC02BF01DEF13F03F50D8A401
:1023B800E0EF11F0E2EF11F0ECEF11F0000E286EF3
:1023C800000E296E000E2A6E000E2B6E1DEF13F004
:1023D80040503FC030F0316A305E000E315A7F0EF7
:1023E8003024396E000E31203A6E28C034F029C0EE
:1023F80035F02AC036F02BC037F0000E286E000EDC
:10240800296E000E2A6E000E2B6E000E3B6E000E1B
:102418003C6E000E3D6E000E3E6E000E406E4DEF9F
:1024280012F04050D8B41BEF12F01DEF12F034EF49
:1024380012F0D8903436353636363736D8902836B6
:1024480029362A362B363EAE2CEF12F02EEF12F03C
:102458002FEF12F02880D8903B363C363D363E367A
:102468002C50345C2D5035582E5036582F50375834
:10247800D8A041EF12F043EF12F04CEF12F03E8C6F
:102488002C50345E2D50355A2E50365A2F50375A0C
:10249800402A190E406453EF12F055EF12F015EF71
:1024A80012F03450351036103710D8B45EEF12F0F1
:1024B80060EF12F078EF12F03B8078EF12F0D890CE
:1024C800283629362A362B363EAE6DEF12F06FEFDE
:1024D80012F070EF12F02880D8903B363C363D362B
:1024E8003E363906D8A03A062AAE7DEF12F07FEFC5
:1024F80012F063EF12F0000E406E3EAE86EF12F05F
:1025080088EF12F0ACEF12F0FF0E3B14306EFF0EA6
:102518003C14316EFF0E3D14326E7F0E3E14336E46
:102528003050311032103310D8B49DEF12F09FEFB5
:1025380012F0A3EF12F0010E406EACEF12F028A0DB
:10254800A8EF12F0AAEF12F0ACEF12F09FEF12F022
:102558004050D8B4B2EF12F0B4EF12F0D8EF12F046
:10256800010E2826000E29222A222B222BA0BFEF9B
:1025780012F0C1EF12F0D8EF12F028C030F029C0E5
:1025880031F02AC032F02BC033F0333433323232D8
:102598003132303230C028F031C029F032C02AF050
:1025A80033C02BF0394A3A2A3ABEE3EF12F03A50D8
:1025B80008E13928D8A0E3EF12F0E5EF12F0F0EFC8
:1025C80012F0000E3A6E3968000E286E000E296E61
:1025D800000E2A6E000E2B6E3ABEFDEF12F03A5036
:1025E80006E13904D8B0FBEF12F0FDEF12F00BEF63
:1025F80013F0000E3A6E000E396E000E286E000EB3
:10260800296E000E2A6E000E2B6E000E386E39C031
:102618003FF03FA012EF13F014EF13F017EF13F091
:102628002A8E18EF13F02A9ED8903F302B6ECEEFEB
:1026380011F01200010EC26E0D0EC16E870EC06E33
:10264800F5EC1DF0010E076E140E086E060E096EED
:10265800010EA5EC1DF0010E076E1A0E086E060E8F
:10266800096E020EA5EC1DF0040E0001DB6F0C0EC6
:10267800DA6F330EE82EFED7DA2FFCD7DB2FFAD726
:1026880000D0010EC26E420EE82EFED700D0C282E4
:10269800C2B251EF13F053EF13F04CEF13F0C4CF65
:1026A800F4F00001F56BF451DB6FDA6BC350DA25F7
:1026B800F46F000EDB21F56F000E136E400E146EE2
:1026C8009C0E156E450E166EF4C001F0F5C002F0B2
:1026D800000E02BEFF0E036E046E010E43EC16F0F0
:1026E80001C00FF002C010F003C011F004C012F0D6
:1026F8003CEC0FF00FC028F010C029F011C02AF0F0
:1027080012C02BF0000E2C6EC00E2D6E7F0E2E6E9A
:10271800440E2F6E51EC11F028C0E4F029C0E5F00A
:102728002AC0E6F02BC0E7F0E4C028F0E5C029F0A5
:10273800E6C02AF0E7C02BF0000E2C6E000E2D6EBE
:10274800200E2E6E410E2F6E51EC11F028C0E4F0D1
:1027580029C0E5F02AC0E6F02BC0E7F0050EC26EEE
:10276800420EE82EFED700D0C282C2B2BEEF13F0EE
:10277800C0EF13F0B9EF13F0C4CFF4F00001F56B1C
:10278800F451DB6FDA6BC350DA25F46F000EDB21EE
:10279800F56FF4C001F0F5C002F0000E02BEFF0EA6
:1027A800036E046E880E056E130E066E000E076E1D
:1027B800000E086E42EC1EF001C00DF002C00EF0D3
:1027C80003C00FF004C010F0FF0E116E030E126E5E
:1027D800000E136E000E146E72EC18F00DC0E8F0C7
:1027E8000EC0E9F00FC0EAF010C0EBF0500E756EA5
:1027F800010E766E010E776E060E786EE4C079F0E3
:10280800E5C07AF0E6C07BF0E7C07CF0000E7E6E93
:10281800DF0E7D6E34EC1FF0070E076E500E086E4B
:10282800010E096E010EA5EC1DF0500E756E010E1D
:10283800766E0B0E776E060E786EE8C079F0E9C0FA
:102848007AF0EAC07BF0EBC07CF034EC1FF0070EA6
:10285800076E500E086E010E096E020EA5EC1DF0F3
:1028680038EF13F000EF00F0DCC051F0DDC052F09B
:10287800DEC053F0DFC054F041C051F042C052F006
:1028880043C053F044C054F0810E456EFF0E466EAF
:1028980051C047F052C048F053C049F054C04AF004
:1028A800180E5CEF14F0D8904A3249324832473259
:1028B800E82E57EF14F0475045244F6E000E46207F
:1028C800506E50BE71EF14F0505009E1170E4F5C76
:1028D800D8A071EF14F073EF14F07DEF14F041C03D
:1028E80041F042C042F043C043F044C044F040EFDE
:1028F80015F050BE82EF14F084EF14F0F4EF14F0EA
:102908004FC045F0FF0E466EFF0E476E7F0E486EB5
:10291800000E496E456693EF14F09BEF14F04934AE
:102928004932483247324632452E8EEF14F046C0BF
:102938004BF047C04CF048C04DF049C04EF04B50EA
:102948005114456E4C505214466E4D505314476EF8
:102958004E505414486E4550461047104810D8A49D
:10296800B8EF14F0BAEF14F0BCEF14F073EF14F0F2
:1029780051C045F052C046F053C047F054C048F02B
:10298800200ECCEF14F0D890483247324632453208
:10299800E82EC7EF14F04550461047104810D8B439
:1029A800D8EF14F0DAEF14F0E2EF14F04B505126A0
:1029B8004C5052224D5053224E5054224B1C456EBF
:1029C8004C1C466E4D1C476E4E1C486E45505116A9
:1029D80046505216475053164850541638EF15F0C3
:1029E80051C045F052C046F053C047F054C048F0BB
:1029F800200E04EF15F0D89048324732463245325F
:102A0800E82EFFEF14F04550461047104810D8A4A0
:102A180010EF15F012EF15F01CEF15F0000E516EC7
:102A2800000E526E000E536E000E546E38EF15F005
:102A3800D8905134456E5234466E5334476E5434F0
:102A4800486E4550461047104810D8B42EEF15F080
:102A580030EF15F038EF15F0000E516E000E526E83
:102A6800800E536EBF0E546E51C041F052C042F0FA
:102A780053C043F054C044F012000001F1BF47EFC7
:102A880015F049EF15F04AEF15F0F293F1BF57EF43
:102A980015F0F15106E1F005D8B055EF15F057EFF4
:102AA80015F05DEF15F0000E2F6E010E2E6E61EF22
:102AB80015F0F0C02EF0F1C02FF0EEC030F0EFC0EE
:102AC80031F01EC032F01FC033F020C034F021C0F6
:102AD80035F022C036F023C037F024C038F025C0C6
:102AE80039F0000E3B6E4F0E3A6E000E01014F6F2B
:102AF800F4EF15F03A06D8A03B06000E3A24D96E3A
:102B0800010E3B20DA6E32C001F033C002F034C04F
:102B180003F035C004F036C005F037C006F038C001
:102B280007F039C008F00A0E096E000E0A6E000E92
:102B38000B6E000E0C6E000E0D6E000E0E6E000E6B
:102B48000F6E000E106E66EC1BF001C026F002C07E
:102B580027F003C028F004C029F005C02AF006C0F9
:102B68002BF007C02CF008C02DF02650300FDF6E78
:102B78002E06D8A02F063006D8A0310632C001F0A4
:102B880033C002F034C003F035C004F036C005F09D
:102B980037C006F038C007F039C008F00A0E096ED1
:102BA800000E0A6E000E0B6E000E0C6E000E0D6EFF
:102BB800000E0E6E000E0F6E000E106E7CEC1AF0FA
:102BC80001C032F002C033F003C034F004C035F065
:102BD80005C036F006C037F007C038F008C039F035
:102BE8003A503B10D8B4FBEF15F0FDEF15F02EEF7F
:102BF80016F03250331034103510361037103810A4
:102C08003910D8A40AEF16F00CEF16F07EEF15F085
:102C18002FBE19EF16F02F5006E12E04D8B017EF8B
:102C280016F019EF16F07EEF15F031BE24EF16F00E
:102C3800315008E13004D8A024EF16F026EF16F042
:102C48002EEF16F00001F2B32CEF16F02EEF16F06F
:102C58007EEF15F01CC011F01DC012F0000E3A24D2
:102C6800136E010E3B20146E30C015F031C016F003
:102C780033EC1CF011C01CF012C01DF01200096EDC
:102C88000950D8B44AEF16F04CEF16F06EEF16F074
:102C980004BE53EF16F051EF16F06EEF16F001C0B8
:102CA80005F002C006F003C007F004C008F0051ED6
:102CB800061E071E081E052A000E062207220822E5
:102CC80005C00BF006C00CF007C00DF008C00EF0F0
:102CD80076EF16F001C00BF002C00CF003C00DF047
:102CE80004C00EF00150021003100410D8A47FEFA6
:102CF80016F081EF16F08BEF16F0000E016E000E45
:102D0800026E000E036E000E046E1CEF17F0960E96
:102D18000A6E95EF16F00A2AD8900E320D320C3250
:102D28000B32000E0B14056E000E0C14066E000E0E
:102D38000D14076EFE0E0E14086E055006100710CF
:102D48000810D8A4AAEF16F0ACEF16F08FEF16F023
:102D5800BAEF16F00A2A010E0B26000E0C220D22DD
:102D68000E22D8900E320D320C320B32000E0B149C
:102D7800056E000E0C14066E000E0D14076EFF0E85
:102D88000E14086E0550061007100810D8A4CFEFCF
:102D980016F0D1EF16F0AEEF16F0D9EF16F00A06DE
:102DA800D8900B360C360D360E360DBEDEEF16F00B
:102DB800E0EF16F0E8EF16F0020E0A60E6EF16F004
:102DC800E8EF16F0D3EF16F00AB0EDEF16F0EFEFDC
:102DD80016F0F0EF16F00D9ED8900A320AC005F0F2
:102DE800066A076A086A05C008F0076A066A056A7B
:102DF80005500B1206500C1207500D1208500E12F7
:102E08000950D8B40AEF17F00CEF17F014EF17F0C9
:102E180004BE13EF17F011EF17F014EF17F00E8E32
:102E28000BC001F00CC002F00DC003F00EC004F09E
:102E38001200000E166E000E156E000E0F6E000EBC
:102E48000E6E29EF17F0084A092A010E146E08C001
:102E5800F6FF09C0F7FF0800F550200AD8B437EF8D
:102E680017F039EF17F056EF17F0F70E0A6EFF0E4E
:102E78000B6E08C0F6FF09C0F7FF0800F5500C6E8E
:102E88000D6A0A500C260B500D220D5009E1050E53
:102E98000C5CD8A052EF17F054EF17F056EF17F06C
:102EA800000E146E14C010F0116A10501110D8A43E
:102EB80060EF17F062EF17F027EF17F06CEF17F0DD
:102EC800000E0F6E010E0E6E084A092AA1EF17F0C8
:102ED80008C0F6FF09C0F7FF0800F5500A6E0B6A34
:102EE8000B50000AD8B47BEF17F0A1EF17F00A5087
:102EF8002B0AD8B468EF17F0060AD8B464EF17F0B5
:102F0800A1EF17F015C001F016C002F0000E046E14
:102F18000A0E036E3AEC20F008C0F6FF09C0F7FF6E
:102F28000800F550015E000E025A300E0124156E9D
:102F3800000E0220166E68EF17F0D00E0A6EFF0E14
:102F48000B6E08C0F6FF09C0F7FF0800F5500C6EBD
:102F58000D6A0A500C260B500D220D500AE10A0E7C
:102F68000C5CD8A0BAEF17F0BDEF17F0010EBEEF5A
:102F780017F0000E126E136A12501310D8A4C7EF80
:102F880017F0C9EF17F086EF17F00E500F10D8A4FE
:102F9800D0EF17F0D2EF17F0E0EF17F015C00AF0F6
:102FA80016C00BF00A1E0B1E0A4A0B2A0AC008F0AC
:102FB8000BC009F0E4EF17F015C008F016C009F0CF
:102FC800120001C008F002C009F003C00AF004C0F2
:102FD8000BF00506D8A00606052806E10628D8A4A1
:102FE800F8EF17F0FAEF17F007EF18F0000E026E7F
:102FF800000E016E71EF18F0084A092A0A4A0B2AD6
:103008000506D8A0060608C0F6FF09C0F7FFF86A4B
:10301800050EF76403D00800F55005D0F6CFE1FFA0
:10302800F7CFE2FFE7500009D8B41DEF18F01FEF03
:1030380018F055EF18F00AC0F6FF0BC0F7FF0800AC
:10304800F5500009D8B42BEF18F02DEF18F055EF14
:1030580018F005500610D8B434EF18F036EF18F011
:1030680055EF18F00AC0F6FF0BC0F7FF0800F5CFC0
:1030780007F008C0F6FF09C0F7FFF86A050EF76405
:1030880003D00800F55005D0F6CFE1FFF7CFE2FFF7
:10309800E7500718D8B453EF18F055EF18F000EFC1
:1030A80018F008C0F6FF09C0F7FFF86A050EF764C4
:1030B80003D00800F55005D0F6CFE1FFF7CFE2FFC7
:1030C800E750076E0AC0F6FF0BC0F7FF0800F5507F
:1030D800075C016E026AD8A002061200000E166E86
:1030E80014BE7BEF18F079EF18F085EF18F0141E76
:1030F800131E121E116C000E122213221422010E2E
:10310800166E10BE8CEF18F08AEF18F096EF18F0D4
:10311800101E0F1E0E1E0D6C000E0E220F22102206
:10312800010E161A000E176E000E186E000E196E9C
:10313800000E1A6E1150121013101410D8B4A7EF05
:1031480018F0A9EF18F0DFEF18F0010E156EB3EFC5
:1031580018F0D8901136123613361436152A14AED4
:10316800B8EF18F0BAEF18F0ADEF18F0D89017369E
:10317800183619361A3611500D5C12500E58135065
:103188000F5814501058D8A0CCEF18F0CEEF18F004
:10319800D7EF18F011500D5E12500E5A13500F5AF7
:1031A8001450105A1780D890143213321232113238
:1031B800152EBAEF18F01650D8B4E5EF18F0E7EF6F
:1031C80018F0EFEF18F01A1E191E181E176C000ED3
:1031D800182219221A2217C00DF018C00EF019C0B3
:1031E8000FF01AC010F01200033404340A6E0A50AB
:1031F800D8A401EF19F003EF19F00DEF19F0000E44
:10320800016E000E026E000E036E000E046E7AEF61
:1032180019F001C005F002C006F003C007F004C0B1
:1032280008F0200E1DEF19F0D89008320732063248
:103238000532E82E18EF19F00550096E038EFF0EBF
:103248000116FF0E0216FF0E0316000E0416960E48
:103258000A5E0ABE34EF19F032EF19F04AEF19F09E
:103268000A50800A970FD8B03CEF19F03EEF19F0DA
:1032780040EF19F003EF19F0D8900432033202320C
:1032880001320A3E40EF19F062EF19F01F0E0A648E
:1032980050EF19F052EF19F05AEF19F003EF19F047
:1032A800D89001360236033604360A060A50D8A4E6
:1032B80060EF19F062EF19F054EF19F00950D8B423
:1032C80068EF19F06AEF19F072EF19F0041E031E87
:1032D800021E016C000E02220322042201C001F02A
:1032E80002C002F003C003F004C004F01200000E94
:1032F8002814306E000E2914316E800E2A14326E96
:103308007F0E2B14336E3050311032103310D8A486
:1033180090EF19F092EF19F09AEF19F0000E286E5D
:10332800000E296E000E2A6E000E2B6E000E2C1455
:10333800306E000E2D14316E800E2E14326E7F0EFC
:103348002F14336E3050311032103310D8A4AFEF31
:1033580019F0B1EF19F0B9EF19F0000E2C6E000E4C
:103368002D6E000E2E6E000E2F6E2BAEBEEF19F0D6
:10337800C0EF19F0C9EF19F0286C291ED8B0292A16
:103388002A1ED8B02A2A800E2B562FAECEEF19F05F
:10339800D0EF19F0D9EF19F02C6C2D1ED8B02D2ACA
:1033A8002E1ED8B02E2A800E2F56000E281A000E78
:1033B800291A000E2A1A800E2B1A000E2C1A000E3B
:1033C8002D1A000E2E1A800E2F1A2C50285C2D5004
:1033D80029582E502A582F502B58D8B0F6EF19F0EC
:1033E800F8EF19F0FBEF19F0D890FCEF19F0D8803E
:1033F8001200E0C00BF0E1C00CF0E2C00DF0E3C039
:103408000EF001C00BF002C00CF003C00DF004C0B8
:103418000EF00BC005F00CC006F00DC007F00EC092
:1034280008F0180E1DEF1AF0D8900832073206324D
:103438000532E82E18EF1AF00550096E0A6A09508D
:103448000A10D8A42AEF1AF02CEF1AF04CEF1AF051
:10345800D8900B34056E0C34066E0D34076E0E349E
:10346800086E0550061007100810D8A43EEF1AF091
:1034780040EF1AF046EF1AF0000E026E020E016ECF
:103488007BEF1AF0000E026E030E016E7BEF1AF04E
:1034980009280A10D8A453EF1AF055EF1AF077EF5D
:1034A8001AF00BC005F00CC006F00DC007F00EC0F6
:1034B80008F0090ED8900536063607360836E82E85
:1034C8005EEF1AF00550061007100810D8B46FEF19
:1034D8001AF072EF1AF0010E73EF1AF0000E016E77
:1034E800026A7BEF1AF0000E026E040E016E1200E3
:1034F80020EE11F0070EDE6AE806FDE209500A1018
:103508000B100C100D100E100F101010D8B48FEFF8
:103518001AF091EF1AF0E3EF1AF0010E196E9FEF0F
:103528001AF0D89009360A360B360C360D360E3698
:103538000F361036192A10AEA4EF1AF0A6EF1AF0BB
:1035480095EF1AF0D8901136123613361436153610
:103558001636173618360950015C0A5002580B50B7
:1035680003580C5004580D5005580E5006580F506B
:10357800075810500858D8A0C4EF1AF0C6EF1AF030
:10358800D7EF1AF00950015E0A50025A0B50035A3D
:103598000C50045A0D50055A0E50065A0F50075A2F
:1035A8001050085A1180D89010320F320E320D3256
:1035B8000C320B320A320932192EA6EF1AF011C05A
:1035C80001F012C002F013C003F014C004F015C0DB
:1035D80005F016C006F017C007F018C008F0120072
:1035E800046E100E016E04505EEC20F0036E033A78
:1035F8008C500318EF0B03188C6E200E016E0450CC
:103608005EEC20F0036E033A03468C500318DF0B80
:1036180003188C6E400E016E04505EEC20F0036EB1
:10362800033A034603468C500318BF0B03188C6EED
:10363800800E016E04505EEC20F0036E03320332FC
:103648008C5003187F0B03188C6E8D828D92420E5E
:10365800E82EFED700D0010E016E04505EEC20F07B
:10366800036E033A8C500318EF0B03188C6E020E8E
:10367800016E04505EEC20F0036E033A03468C5052
:103688000318DF0B03188C6E040E016E04505EECF9
:1036980020F0036E033A034603468C500318BF0B11
:1036A80003188C6E080E016E04505EEC20F0036E59
:1036B800033203328C5003187F0B03188C6E8D82F3
:1036C8008D92120009500A100B100C100D100E10DC
:1036D8000F101010D8B473EF1BF075EF1BF0BDEF8F
:1036E8001BF0010E116E83EF1BF0D89009360A36D5
:1036F8000B360C360D360E360F361036112A10AE34
:1037080088EF1BF08AEF1BF079EF1BF00950015C82
:103718000A5002580B5003580C5004580D500558C5
:103728000E5006580F50075810500858D8A09FEF51
:103738001BF0A1EF1BF0B1EF1BF00950015E0A501E
:10374800025A0B50035A0C50045A0D50055A0E5089
:10375800065A0F50075A1050085AD89010320F3294
:103768000E320D320C320B320A320932112E8AEF28
:103778001BF001C001F002C002F003C003F004C056
:1037880004F005C005F006C006F007C007F008C041
:1037980008F0120003500410D8B4D5EF1BF0D7EF8F
:1037A8001BF0E0EF1BF003500410D8A4DEEF1BF071
:1037B800E0EF1BF0E5EF1BF001507DEC20F032EF5D
:1037C8001CF020EE04F00350D9260450DA22DE5013
:1037D800DE10D8B4F2EF1BF0F4EF1BF00FEF1CF083
:1037E80020EE04F00350D9260450DA2210EE02F03D
:1037F8000350E1260450E222DE50E65CE650800ADF
:10380800096EDE50800A0958D8B00DEF1CF00FEF92
:103818001CF032EF1CF020EE02F00350D9260450C1
:10382800DA22DECF05F0DDCF06F003C0D9FF04C0F1
:10383800DAFFDECF07F0DDCF08F005500724D96E98
:1038480006500820DA6E01C0DFFF20EE02F00350B8
:10385800D9260450DA22DE2A000EDD2212000001E9
:10386800F2A139EF1CF03BEF1CF045EF1CF013C040
:103878000AF014C00BF011C00CF012C00DF0A9EC46
:103888001FF016BE4AEF1CF04CEF1CF052EF1CF074
:1038980015C01AF016C01BF056EF1CF0000E1B6E78
:1038A800000E1A6E000E196E000E186E68EF1CF0EE
:1038B800000E026E200E016E11C003F012C004F05B
:1038C800CEEC1BF0184A192A1A50185C1950800AB5
:1038D800176E1B50800A1758D8A075EF1CF077EFA9
:1038E8001CF05CEF1CF00001F2B17DEF1CF07FEFE3
:1038F8001CF089EF1CF013C00AF014C00BF011C0C3
:103908000CF012C00DF0A9EC1FF013C001F014C0A8
:1039180002F01FEC20F01A500124116E1B500220F7
:10392800126E1200000E066E04BE9FEF1CF09DEF93
:103938001CF0A5EF1CF0036C041ED8B0042A010E7D
:10394800066E02BEACEF1CF0AAEF1CF0B2EF1CF042
:10395800016C021ED8B0022A010E061A000E086E6B
:10396800000E076E03500410D8B4BDEF1CF0BFEF73
:103978001CF0E7EF1CF0010E056EC7EF1CF0D890A5
:1039880003360436052A04AECCEF1CF0CEEF1CF04B
:10399800C3EF1CF0D890073608360350015C04507A
:1039A8000258D8A0DAEF1CF0DCEF1CF0E1EF1CF0B5
:1039B8000350015E0450025A0780D8900432033243
:1039C800052ECEEF1CF00650D8B4EDEF1CF0EFEF4B
:1039D8001CF0F3EF1CF0076C081ED8B0082A07C0CB
:1039E80001F008C002F01200000E066E02BE01EFE0
:1039F8001DF0FFEF1CF007EF1DF0016C021ED8B0A0
:103A0800022A010E066E04BE0EEF1DF00CEF1DF02B
:103A180012EF1DF0036C041ED8B0042A03500410E2
:103A2800D8B419EF1DF01BEF1DF03FEF1DF0010E8C
:103A3800056E23EF1DF0D89003360436052A04AE30
:103A480028EF1DF02AEF1DF01FEF1DF00350015C59
:103A580004500258D8A033EF1DF035EF1DF039EFB0
:103A68001DF00350015E0450025AD890043203320C
:103A7800052E2AEF1DF00650D8B445EF1DF047EF8C
:103A88001DF04BEF1DF0016C021ED8B0022A01C0D8
:103A980001F002C002F01200000E0114096E000EBF
:103AA80002140A6E800E03140B6E7F0E04140C6E43
:103AB80009500A100B100C10D8A465EF1DF067EF21
:103AC8001DF06FEF1DF0000E016E000E026E000E6D
:103AD800036E000E046E000E0514096E000E061427
:103AE8000A6E800E07140B6E7F0E08140C6E0950B8
:103AF8000A100B100C10D8A484EF1DF086EF1DF0EF
:103B08008EEF1DF0000E056E000E066E000E076E9D
:103B1800000E086E055001180FE1065002180CE15E
:103B28000750031809E108500418D8B49EEF1DF097
:103B3800A0EF1DF0A3EF1DF0D890A4EF1DF0D880E2
:103B480012000B6E0B04D8A4ACEF1DF0AEEF1DF005
:103B5800B3EF1DF007507F0F0A6EBFEF1DF0020E86
:103B68000B18D8A4BAEF1DF0BCEF1DF0BFEF1DF085
:103B78000750BF0F0A6E0AC005F0000E6EEC20F069
:103B8800DCEF1DF008C0F6FF09C0F7FFF86A050E64
:103B9800F76403D00800F55005D0F6CFE1FFF7CF62
:103BA800E2FFE750056E010E6EEC20F0084A092A84
:103BB80008C0F6FF09C0F7FFF86A050EF76403D0DE
:103BC8000800F55005D0F6CFE1FFF7CFE2FFE75048
:103BD8000009D8A4F2EF1DF0F4EF1DF0C6EF1DF0B8
:103BE8001200000E956E96909692000E8C6E8D9037
:103BF8008D92270E056EF50EE82EFED7052EFCD702
:103C080000F0000E066E300EF4EC1AF00D0E056E84
:103C1800FC0EE82EFED7052EFCD7062A020E0664F7
:103C280018EF1EF01AEF1EF007EF1EF0020EF4EC6C
:103C38001AF01A0EE82EFED700D0280EF4EC1AF06F
:103C48001A0EE82EFED700D0010EF4EC1AF0060E7C
:103C5800056E300EE82EFED7052EFCD700D00C0ED0
:103C6800F4EC1AF01A0EE82EFED700D0060EF4EC8B
:103C78001AF01A0EE82EFED700D01200000E096EB8
:103C8800000E0A6E000E0B6E000E0C6E01A04FEFB8
:103C98001EF051EF1EF059EF1EF005500926065090
:103CA8000A2207500B2208500C22D89005360636F7
:103CB80007360836D89004320332023201320150F6
:103CC800021003100410D8A46CEF1EF06EEF1EF063
:103CD8004AEF1EF009C001F00AC002F00BC003F061
:103CE8000CC004F012006FC073F070C074F0000EC6
:103CF8000001ED6F000EEC6F95EF1EF06DC061F0E6
:103D08006EC062F0730E636E000E646E71C065F073
:103D180072C066F0F4EC08F061500001EC276250C4
:103D2800ED2373C0F6FF74C0F7FF0800F5500009D3
:103D3800D8A4A1EF1EF0A3EF1EF082EF1EF0ECC096
:103D48006DF0EDC06EF01200BF0E096EFF0E0A6E28
:103D580007C00BF008C00CF009500B260A500C22C3
:103D68000C500AE11A0E0B5CD8A0BDEF1EF0C0EF94
:103D78001EF0010EC1EF1EF0000E0D6E0E6A0D5002
:103D88000E10D8B4CAEF1EF0CCEF1EF0D3EF1EF021
:103D9800200E0710076E0850086ED7EF1EF007C0F8
:103DA80007F008C008F0120003C007F004C008F0CC
:103DB80001C009F002C00AF00750056E0850066EEF
:103DC800074A082A05C0F6FF06C0F7FFF86A09C0C7
:103DD800D9FF0AC0DAFF094A0A2A050EF76403D098
:103DE8000800F55005D0F6CFE1FFF7CFE2FFE75026
:103DF800DF6EDF50D8A403EF1FF005EF1FF0E0EFF0
:103E08001EF012000001EE51EF11D8A40EEF1FF0C2
:103E180010EF1FF016EF1FF0EEC01FF0EFC020F0FC
:103E28001CEF1FF0FF0EEE251F6EFF0EEF21206E18
:103E38001EC000F1000E0101016F1CC011F01DC071
:103E480012F0000E136E010E146E1FC015F020C084
:103E580016F033EC1CF011C01CF012C01DF012005B
:103E6800790E0001D26F000ED36F75C0D4F076C002
:103E7800D5F0000ED76F000ED66F000ED96F000E6A
:103E8800D86FD40E6D6E000E6E6E77C06FF078C06E
:103E980070F0D20E716E000E726E77EC1EF000019B
:103EA800D6517524D96ED7517620DA6E000EDF6EA2
:103EB8001200010E076E200E01180210D8B467EF29
:103EC8001FF069EF1FF082EF1FF0F70E036EFF0E71
:103ED800046E01C005F002C006F003500526045028
:103EE8000622065009E1050E055CD8A07EEF1FF0FA
:103EF80080EF1FF082EF1FF0000E076E07C001F081
:103F0800026A1200000E2C1A000E2D1A000E2E1A2C
:103F1800800E2F1A28C001F029C002F02AC003F031
:103F28002BC004F02CC005F02DC006F02EC007F001
:103F38002FC008F0DCEC0CF001C028F002C029F01A
:103F480003C02AF004C02BF01200000E106E000E01
:103F58000F6EBAEF1FF00EC001F0026A0CC003F03A
:103F68000DC004F0CEEC1BF00F4A102A0F500A24A3
:103F7800D96E10500B20DA6EDF500E6E0E50D8A49A
:103F8800C8EF1FF0CAEF1FF0AFEF1FF01200BF0E0F
:103F9800036EFF0E046E01C005F002C006F0035068
:103FA80005260450062206500AE11A0E055CD8A020
:103FB800E0EF1FF0E3EF1FF0010EE4EF1FF0000E3B
:103FC800016E026A12000150021003100410D8B4E6
:103FD800F0EF1FF0F2EF1FF0FAEF1FF0000E011ADA
:103FE800000E021A000E031A800E041A01C001F016
:103FF80002C002F003C003F004C004F01200D00EA7
:10400800036EFF0E046E01C005F002C006F00350F7
:1040180005260450062206500AE10A0E055CD8A0BF
:1040280018EF20F01BEF20F0010E1CEF20F0000E1F
:10403800016E026A120001C003F002C004F027EF0B
:1040480020F0014A022A01C0D9FF02C0DAFFDF507E
:10405800D8A431EF20F033EF20F025EF20F0035003
:10406800015C016E04500258026E120001500302F6
:10407800F3CF05F0F4CF06F001500402F350062602
:1040880002500302F350062605C001F006C002F0F4
:10409800120001EE00F0600EEE6AE806FDE100EEA7
:1040A800DCF01A0EEE6AE806FDE1000EF86E00017B
:1040B8001EEF13F0026E025001140009D8B467EF26
:1040C80020F069EF20F06CEF20F0010E6DEF20F08A
:1040D800000E1200066E06B002D08D9001D08D80C1
:1040E800420EE82EFED700D08D920550F4EC1AF05F
:0440F80012001200A0
:020000040020DA
:08000000FFFFFFFFFFFFFFFF00
:020000040030CA
:0E000000FF02181EFF8181FF0FC00FE00F40AE
:00000001FF
